:10000000C8D50020E926000015AC0000D526000068
:10001000D5260000D5260000D5260000D5260000F4
:10002000000000000000000000000000B9270000F0
:10003000D5260000000000007D290000D526000024
:10004000FD290000FD290000FD290000FD29000018
:10005000FD290000FD290000FD290000FD29000008
:10006000FD290000FD290000FD290000FD290000F8
:10007000FD290000FD290000FD290000FD290000E8
:10047C0053B94AB9002908BF00281CBF4FF0FF31FF
:10048C004FF0FF3000F00CB8ADF1080C6DE904CE64
:10049C0000F022F8DDF804E0DDE9022304B0704737
:1004AC00704700BF10F8012B11F8013B012A28BF3F
:1004BC009A42F7D0D01A7047034611F8012B03F873
:1004CC00012B002AF9D17047034613F8012B002A9F
:1004DC00FBD1181A013870472DE9F0478C468E462F
:1004EC00089E154604461946002B40F0D0807245F4
:1004FC0047D9B2FA82F74FB1C7F120030EFA07FCC5
:10050C00BD40BC4020FA03F343EA0C0C4FEA154EF5
:10051C00A8B2230CBCFBFEF80EFB18CC08FB00F9B0
:10052C0043EA0C43994528D9EB1808F1FF3204D261
:10053C00994502D9A8F102022B44A3EB0903A4B2FA
:10054C00B3FBFEFC0EFB1C330CFB00F044EA034433
:10055C00A04214D92C190CF1FF3304D2A04202D9B9
:10056C00ACF102032C44241A43EA02401EB1FC40B5
:10057C00002334607360BDE8F0874246DDE76346D4
:10058C00F1E7002A79D0B2FA82F3002B3FD019465A
:10059C00C1F1200302FA01F500FA01F42EFA03F27C
:1005AC000EFA01FE20FA03F3AFB243EA0E034FEA50
:1005BC00154EB2FBFEFC0EFB1C201A0C0CFB07F8B4
:1005CC0042EA004290455AD9AA180CF1FF3004D2E5
:1005DC00904502D9ACF102002A44A2EB08029BB26E
:1005EC00B2FBFEFC0EFB1C220CFB07F743EA02439A
:1005FC009F4246D9EB180CF1FF3204D29F4202D92C
:10060C00ACF102022B44DB1B42EA004202E0AEEBEF
:10061C00020301224FEA154EAFB2200CB3FBFEFCD5
:10062C000EFB1C330CFB07F840EA034398452AD910
:10063C00EB180CF1FF3004D2984502D9ACF1020052
:10064C002B44A3EB0803A4B2B3FBFEFC0EFB1C3340
:10065C000CFB07F744EA0344A74216D92C190CF1FA
:10066C00FF3304D2A74202D9ACF102032C44E41BA1
:10067C0043EA00400F46114678E71F2188E76046A1
:10068C00ABE76246BFE76046DBE76346EFE77345DF
:10069C0006D916B9002108466DE7C6E9000EF9E740
:1006AC00B3FA83F787B9734501D3824207D8841A0A
:1006BC006EEB030301209C461EB900215BE7384614
:1006CC00FAE7C6E9004CF8E7C7F1200CBB4000FA8A
:1006DC0007F422FA0CF520FA0CF1BA401D432EFA5D
:1006EC000CF30EFA07FE4FEA154941EA0E011FFA08
:1006FC0085FEB3FBF9F809FB18300B0C08FB0EFA5E
:10070C0043EA00439A4540D9EB1808F1FF3004D274
:10071C009A4502D9A8F102002B44A3EB0A0389B233
:10072C00B3FBF9F809FB183308FB0EFE41EA034151
:10073C008E452CD9691808F1FF3304D28E4502D9A5
:10074C00A8F10203294443EA0040A1EB0E01A0FBEF
:10075C0002984145CE46434602D306D14C4504D2BD
:10076C000138B9EB020E68EB0503002EA5D0B4EBF3
:10077C000E0261EB030101FA0CFC22FA07F3F940BB
:10078C004CEA0303C6E9003197E74046C5E7434608
:10079C00D9E70000002313B515496846CDE90033AD
:1007AC0002F0B2FD1249024620B1124809F0E6FFF0
:1007BC0002B010BD104809F0E1FF104C68460F491B
:1007CC0002F01AFE80B9637873B12378012B04D13F
:1007DC000B490C4809F0D2FFF0E7D4F80421084982
:1007EC00094809F0CBFFE9E7684602F083FEDFE732
:1007FC000EFA000013FA000035FA00001007002072
:10080C00110700204AFA00005EFA000030B52D48AE
:10081C00D7B009F0B3FF01242B4D402123462B4ABE
:10082C0004A809F08FFC14A904A802F0DBFE10B98F
:10083C000134AC42F1D10023122204A901A8CDE964
:10084C0001338DF80C3002F03BFC60B1204A21489A
:10085C00136804A90133136009F090FF1E4809F0D6
:10086C008DFF57B030BD05221C4901A802F008FDD0
:10087C00044601A802F026FD01A802F0BBFC052CE1
:10088C0013D1174A04A91368164801331360224682
:10089C0009F074FF104809F071FF2F22124804A9C7
:1008AC000DF0E8FDFFF776FFDBE7094A0F48136808
:1008BC0004A901331360224609F060FF064809F0D1
:1008CC005DFFEFE77EFA0000A1860100B9FA000097
:1008DC0018080020C9FA0000CA040100DCFA000064
:1008EC001C080020E2FA00007A3000200AFB00000D
:1008FC0000B54B48C3B009F041FF4A4802F020FE56
:10090C00002860D1484A47491368484801331360AE
:10091C0009F034FF464809F031FF464802F010FE5A
:10092C00002857D1404A43491368404801331360AB
:10093C0009F024FF3E4809F021FF6946394802F0CE
:10094C0051FE00284DD0384A364913683A480133D5
:10095C00136009F013FF364809F010FF694635485B
:10096C0002F040FE002843D02F4A32491368324827
:10097C000133136009F002FF2D4809F0FFFE2F48E8
:10098C0002F0B8FF00283AD1274A2D4813680133EA
:10099C00136009F0F3FE264809F0F0FE274802F038
:1009AC00E1FE002831D1204A264813680133136038
:1009BC0009F0E4FE1E4809F0E1FE204802F09AFF1F
:1009CC0043B05DF804FB204A164913681F480133F5
:1009DC0013609DE71C4A174913681C4801331360C8
:1009EC00A6E7194A0F491368194801331360B0E799
:1009FC00154A10491368164801331360BAE7124AB6
:100A0C001448136801331360C3E70F4A1248136884
:100A1C000133136009F0B2FE054809F0AFFECFE7D1
:100A2C0032FB000066FB00001C08002076FB000077
:100A3C00CA0401009CFB0000ABFB0000F00000208E
:100A4C00E7FB000009FC00001808002089FB0000EF
:100A5C00C9FB0000F8FB00001AFC00002DE9F04F68
:100A6C0089B0002142F29F400DF090F97C4809F0CA
:100A7C0085FE7C4809F082FE7B4809F07FFE7B48AE
:100A8C0009F07CFE7A4809F079FE764809F076FE8A
:100A9C00002400220621774801F0E2F9002859D100
:100AAC001CB17548610009F069FE0025734C74484F
:100ABC00CDE9035509F062FE2368724801332360C7
:100ACC0009F05CFE664809F059FE0121694803AA49
:100ADC0001F0C6F9002857D06B4A6C4813680133F3
:100AEC00136009F04BFE5E4809F048FE0221614894
:100AFC0004AA01F0B5F9002859D0634A6448136878
:100B0C000133136009F03AFE554809F037FE61488D
:100B1C0009F034FE604802F025FE024600286CD134
:100B2C0023685E4901335E48236009F027FE4C4878
:100B3C0009F024FE04A9594802F0C6FD014600281C
:100B4C0000F0D680504A574813680133136009F0FF
:100B5C0015FEF1E000220721464801F081F944B965
:100B6C00514809F00BFE514809F008FE504809F0B5
:100B7C0005FE01344F48610009F000FE00214FF2E0
:100B8C0024400DF003F984E7039951B123684A48D6
:100B9C000133236009F0F2FD314809F0EFFD012526
:100BAC00A4E7394A4548136801331360F2E7049906
:100BBC00B1F5007F1BD1236841480133236009F054
:100BCC00DDFD274809F0DAFD002DA0D0DDE9030199
:100BDC00A0FB010100233B4A050D45EA0135FFF757
:100BEC0047FC2A460146384809F0C8FD8FE7264ADB
:100BFC003648136801331360E1E7234934480B6826
:100C0C0001330B60254909F0B9FD154809F0B6FD13
:100C1C00304809F0B3FD1C4D2F4809F0AFFD2A6890
:100C2C0021682E4809F0AAFD2B68002B40F0888221
:100C3C002368002B40F38482294809F09FFD094862
:100C4C0009F09CFD274C002127480DF09FF82378D4
:100C5C00002B00F077822146244809F08FFDF2E743
:100C6C00CA0401004C0301002BFC000063FC0000D3
:100C7C00A4FC0000B9FD0000BCFD00001C08002015
:100C8C00E5FD000012FE00001808002045FE0000E3
:100C9C0096FE000019FF0000F00000200EFA000084
:100CAC003BFF00003D000100D9FC000008FD0000E6
:100CBC0067FD00009EFD000060FE00007BFE000052
:100CCC00B0FE000040420F00F0FE0000D0FE00001D
:100CDC0057FF000073FF00004B0301008603010067
:100CEC00AC0301007A300020366E01000E040100C6
:100CFC00DDE90565A5FB068507980023A0FB0676B4
:100D0C004D4A29464046FFF7B3FB01464B4809F0D4
:100D1C0035FD0023484A38463146FFF7A9FB01460A
:100D2C00474809F02BFD58EA05057FD02368454854
:100D3C000133236009F022FD434809F01FFDFFF742
:100D4C0029FDFFF763FD414809F018FD00235222ED
:100D5C003F4904A8CDE904338DF8183002F0B0F9FE
:100D6C00002840F0898023683949013339482360D1
:100D7C0009F004FD344809F001FD3749832204A829
:100D8C0002F07EFA8328014640F0628123683348E2
:100D9C000133236009F0F2FC2B4809F0EFFC04A8A6
:100DAC0002F028FA00230122294904A8CDE90433D2
:100DBC008DF8183002F084F90546002840F04E8179
:100DCC002368234901332648236009F0D7FC1E48C9
:100DDC0009F0D4FC29464FF4805222480DF013FB45
:100DEC004FF480521F4904A802F028FA054604A8C3
:100DFC0002F000FA832D40F0388123682946013334
:100E0C001948236009F0BAFC0F4809F0B7FC2A46D0
:100E1C00114914480DF0FFFA002840F03181236885
:100E2C0012480133236009F0A9FC2DE0104A114847
:100E3C001368013313607DE740420F00A7FF0000E9
:100E4C00C4FF0000E1FF0000CA04010057000100CC
:100E5C0066FB00008A00010049160100C000010079
:100E6C00F00001007A10002028010100600101004F
:100E7C00180800200F000100B44AB5491368B548A2
:100E8C000133136009F07AFCB34809F077FC802138
:100E9C00B24809F073FC00235222B14904A8CDE9F1
:100EAC0004338DF8183002F00BF90546002840F099
:100EBC00ED802368AA490133AA48236009F05EFC3F
:100ECC00A54809F05BFC09F0AAFB80468A46002283
:100EDC00A549C2EB421303EBD2030132B2F5805F9A
:100EEC0001F8013BF5D1A04904A802F0C9F9B0F50D
:100EFC00805F00F0D980954A294613689B480133DE
:100F0C00136009F03BFC944809F038FC4FF00009E1
:100F1C0004A802F0D7F909F082FB064604A80F4694
:100F2C0002F068F9B9F1000F25D0B6EB080667EBB3
:100F3C000A07012E77F10003C0F2BF804FF47A70DC
:100F4C00A5FB0001800A40EA815032463B46002155
:100F5C00FFF78EFAB5F5003F40F0B18023683246BA
:100F6C000133236029463B460090814809F006FC7A
:100F7C00794809F003FC00230122794904A8CDE942
:100F8C0004338DF8183002F09BF80546002840F029
:100F9C00A0802368724901337648236009F0EEFB88
:100FAC006D4809F0EBFB09F03AFB2E4682468B4666
:100FBC004FF48052704904A802F040F9B0F5805FFC
:100FCC0000F08E80614A314613686C48013313601F
:100FDC0009F0D4FB604809F0D1FB4FF0000909F08F
:100FEC001EFB074604A8884602F004F9B9F1000F6D
:100FFC0057D0B7EB0A0768EB0B08012F78F1000309
:10100C00C0F289804FF47A70A6FB0001800A40EA96
:10101C0081503A4643460021FFF72AFAB6F5003FC5
:10102C00DFF8289179D123683A46013323603146A1
:10103C0043460090524809F0A1FB474809F09EFB3B
:10104C00002D75D12368802101334E48236023E0A5
:10105C003E4A4D481368013313609BE63B4A3C49BA
:10106C0013684A48013313600CE7384A4848136840
:10107C0029460133136009F081FB374809F07EFBE8
:10108C00324A4448136801331360CCE62F4A344982
:10109C00136830480133136009F070FB2E4809F0D7
:1010AC006DFBFFF725FCB6E505F58055B5F5003F62
:1010BC007FF40DAF4FF001092AE700204AE7234ADD
:1010CC002946136801331360009032463B46324880
:1010DC004CE71E4A224913682C4801331360DBE7A6
:1010EC0000222149C2EB421303EBD2030132B2F5C9
:1010FC00805F01F8013BF5D11B491F480DF08BF9BE
:10110C0006F58056002818BF45F00105B6F5003FDE
:10111C007FF44EAF63E7002080E7D9F800303A4601
:10112C000133C9F800303146009043461B4882E732
:10113C00D9F80030802101331948C9F80030ABE7E9
:10114C0018487AE5184809F019FB7CE518080020C6
:10115C0066FB0000A5000100CA040100AE010100FD
:10116C009CFB00008A0001007A200020E6010100AF
:10117C0009020100F00001007A1000206902010050
:10118C008B020100E9020100D80001000C010100F2
:10119C00440101008701010039020100BA0201007B
:1011AC001A030100DD0301003E0401002DE9F04F9C
:1011BC0091B0009302F004030293C2F3C203013313
:1011CC00840705460E46DDF868A00392059340F0AF
:1011DC009C81041D002849D101F00706341DC6F17D
:1011EC000806009B00274FF004085A1E4FF0FF33EF
:1011FC00B9460193BB46434604970DB10099216053
:10120C000598002800F3D6808F480099814203D3BB
:10121C008E488142C0F0CE800399601B11F0020C05
:10122C0040F0D680B9F10F0F00F2CF80002D00F006
:10123C00D68009F140010DEB010E0199C0F3870036
:10124C000EF8200C0EF8101CBCF1000F00F0C3803F
:10125C0060F07F000EF8200C013709F10109C5F18F
:10126C0008014FF6DA7E043406918CE00729B8D8D1
:10127C006FF01B0011B0BDE8F08F7A285BD84B28BB
:10128C000FD8472857D829282ED8252850D052D8DF
:10129C00202818BF23280CBF4FF0010B4FF0000B78
:1012AC0071E04C382E2846D8DFE800F06D454545F6
:1012BC0045454545454545454845454545454545CF
:1012CC0045564548485656566D486A456D4518482A
:1012DC001845457F7C48454548457C0000204FF02B
:1012EC00000B4FF0040835E001212A38C0B201FA96
:1012FC0000F010EA0E0F46D110F0625C2CD110EA0F
:10130C00010B40D06046013C4444B4FBF8F408FBAC
:10131C0004F425B1A3EB050CA444B445A8D80028CB
:10132C0070D00599013905915AF8041B009164E7B6
:10133C000199013901914FF0000B24E012F8010CD6
:10134C006C2834D1002012F8023C83466C2BC8D197
:10135C004FF008084346D6E70AF1070A2AF0070AB5
:10136C00073424F00704FAE802BC35B1069820448F
:10137C00B0423FF67DAFC4E900BC4FF0000B08341F
:10138C004FF00808434612F8010F002853D0BBF168
:10139C00000F7FF472AF2528F5D14FF0010B019BA4
:1013AC00013301934FF00408ECE7584697E700200F
:1013BC008346A8E7039988077FF551AF4FF0010CDE
:1013CC00601BB0F5007FFFF42DAF6FF0150051E7F7
:1013DC004FF0000CF5E70498013004903DE7BCF1A8
:1013EC00000F01D0013638E70298023600287FF44E
:1013FC0034AF0098CDE90632FFF766F8DDE9063226
:10140C0006442AE7042B08D10AF1040015B1DAF8D6
:10141C000010216082460434B5E70AF1070323F07B
:10142C00070303F1080A1DB1D3E90001C4E9000167
:10143C0008230834A7E7631BB3F5806FC5D23DB909
:10144C00A6F10804E01815E784E5000098170100E0
:10145C00029A9B0828602B709DF81030AAB1EB7093
:10146C00AF702FB1002208A8C5F1010C91450ED127
:10147C004FF0000AC5F101030DF1200801930DF1A5
:10148C00300BD14512D1601BF4E66B70E8E710F815
:10149C00013B190608D50CEB040EB64503F07F038F
:1014AC003FF6E6AE04F8013B0132DFE71FB198F9D5
:1014BC000020002A17DB029BD3B11AF80B2004F88A
:1014CC00012B0022019B18191044B0423FF6D0AEFC
:1014DC0098F80000009904F8010B204603920CF0D8
:1014EC0085FF039A14440AF1010A08F10108C8E7C0
:1014FC0098F8002055F822300093029B009845F88C
:10150C002230FEF7E1FF421CDCE76FF00D00B1E684
:10151C00014B1860704700BF1401002080B50546D0
:10152C000E461746984607F0C3FC034601F072FAC4
:10153C000446DFF81890424649F8003039463046E8
:10154C00A84754F8090001F0FDF900BF080000009D
:10155C002DE9F047058B0446280717460CD50129C1
:10156C000CBF45F0100545F02005258387F3118845
:10157C00BFF36F8FBDE8F087022905F0070540F037
:10158C009480204609F007F9052864D801A353F884
:10159C0020F000BF79150000B7160000631600009C
:1015AC00251600003F1600005116000001F007033D
:1015BC005A1F012A1FD8002221F00701062BD4F84C
:1015CC00008089B2C4E9002209D1434603E0628B52
:1015DC00013262831B68002BF9D141F002012046D5
:1015EC00218309F0D8F84FF0000900286DD041F0A4
:1015FC002001218369E0042B0AD121F0070189B273
:10160C002046218309F0C7F810B141F02001218355
:10161C004FF00008C14658E02369D3F80090238BA3
:10162C0023F0070343F006034FF0000823834646DC
:10163C004BE02369D3F80490238B23F0070343F08A
:10164C000403F1E72369D3F80890238B23F00703F5
:10165C0043F00503E8E74FF00008C146E7E7012235
:10166C0043F00803238387F31188BFF36F8F002A9D
:10167C003BD1B8F1000F4AD1B9F1000F02D020468E
:10168C002C49C847EFF31187202383F31288BFF34B
:10169C006F8F238B23F008039BB22383D9063FD58E
:1016AC0023F01002228303F007056669218B002EBC
:1016BC00BFF67CAF00239946D4F8008021F00701D7
:1016CC00C4E9003341F001012183238B03F0070AA5
:1016DC00AA4502D0A268002AC1D1B8F1000F02D1EC
:1016EC00B9F1000FDAD00022BAE7A1680029C0D006
:1016FC000D680029BDD03346524620464F68B84786
:10170C001DB12B6829461D46F3E72B46FAE74146E7
:10171C00334652462046D8F8008009F068F8A8E70E
:10172C009A067FF523AF23F02002228303F00705EE
:10173C0027E700BF27A800002DE9F84F8146324863
:10174C000F4609F0F8F8064600284FD0BDE8F88F90
:10175C00237B8BB12368DB680BB120469847636809
:10176C0083F806A023681B69002B37D16368042219
:10177C002046196809F000F9013610345C45E7D3AE
:10178C00B9F1000FE2D04FF0010A002DDED0A946CE
:10179C0095FAA5F4B4FA84F40AFA04F3260108EBDA
:1017AC0004146FEA030B25EA0305237B63B158F895
:1017BC0006301B6913BB4644736804222046196823
:1017CC0009EA0B0909F0D8F8002DE1D127B140F254
:1017DC00391000210CF0DAFA4D46D6E7204698472E
:1017EC000028C3D00AFA06F31D43C5E7074C05468B
:1017FC00A0464FF0010ADFF818B0BFE72046984723
:10180C000028E1D1D7E700BF5C0A0020FCF1000002
:10181C000CF20000014B53F82000704748F2000016
:10182C0008B5034608462BB1044A136000F048FA89
:10183C00002008BD6FF01500FBE700BF1801002069
:10184C0000230C4A10B513700B4A0C4913600C4A58
:10185C000C481360FFF7E4FF0B4B0C4918468B4206
:10186C0000D310BD1A1A5C681211013222711033A8
:10187C00F5E700BFAA300020540A002040420F00B8
:10188C00580A00203FA90000FCF100000CF20000F7
:10189C0070B50B4D297841B90120FFF74DFF094C6C
:1018AC00094EB44202D301232B7070BD63685B797F
:1018BC001BB1236820469B6898471034F1E700BFA2
:1018CC00AA300020FCF100000CF2000010B5044618
:1018DC00064809F030F83CB1054BD3E8EF1F01394D
:1018EC00C3E8E21F002AF8D110BD00BF540A002043
:1018FC00580A002070B50A4B05461B689847094CDE
:10190C00094EA860B44200D370BD63685B7923B103
:10191C002368294620461B6898471034F2E700BF1D
:10192C0018010020FCF100000CF20000044A054BE9
:10193C009B1AB1EBD30F34BF52F831000020704723
:10194C004CF10000FCF100002DE9F04F87B004AF22
:10195C000546D7E90EBA8846144699463E6BBBF14C
:10196C00000F1ED0C7F804A0CDF800A010215B46D4
:10197C0000207A6BFFF71AFCB0F5006F014612D30A
:10198C0040F2FF7303931A4B02220293002319496E
:10199C001846CDE9003309F011F80C37BD46BDE807
:1019AC00F08F5946584604F0070205F00704E4008E
:1019BC0044EA821444EA402444EA065417360E449E
:1019CC0026F00706ADEB060D04ADBBF1000F07D0FA
:1019DC00CDF800A05B467A6B05F11000FFF7E6FB33
:1019EC004B4622464146284608F0CFFFD5E700BFBC
:1019FC009104010084F10000406820B1034BC01A2F
:101A0C0040F3CF0070474FF0FF3070474CF10000AF
:101A1C000EB403B503AB53F8042B014604480193F1
:101A2C0001F03AFA02B05DF804EB03B0704700BF66
:101A3C0005AA0000CA0605D48B064CBF024903490F
:101A4C00FFF7E6BF704700BFCA040100C9040100DC
:101A5C002DE9F04F87B09DF8489004460D46984606
:101A6C00DDF850A0169F0492B9F1000F00F0B08081
:101A7C0007F48073059308F07DFF07F0020B024614
:101A8C00002874D020467A49FFF7C2FF0646BBF106
:101A9C00000F08D017F0440F6BD12A462046754929
:101AAC00FFF7B6FF064407F0010353B1724B204613
:101ABC0053F82920714B7249002A08BF1A46FFF7C8
:101ACC00A7FF07F48073002B07F0080318BF4FF033
:101ADC000008002B79D06B4B204653F829206A491B
:101AEC00FFF796FF0546049B2BB11A462046674923
:101AFC00FFF78EFF0544B8F1000F05D04246204693
:101B0C006349FFF785FF054462483544139B1BB1BD
:101B1C002246614908F0FFFD159B002B00F08D80DB
:101B2C00DDF854803946B8F1100F204628BF4FF02D
:101B3C0010080026FFF77EFFB5424FDC0026334627
:101B4C0020461AF803205549FFF762FF0136102E84
:101B5C004AD0710703D120465149FFF759FFB045D0
:101B6C003346EDD820464F49FFF752FFEEE70646C5
:101B7C008DE74D4B1868002894D04C4B4FF47A7B72
:101B8C001B684FF03C0CB5FBF3F5B5FBF0F14FF4D3
:101B9C00616300FB11550BFB05F5B1FBF3F2B5FBD3
:101BAC00F0FE03FB121100FB1E55B1FBFCF30BFB0B
:101BBC0005F5B5FBF0F50CFB131120460091CDE9B2
:101BCC0001E53B49FFF724FF6CE707F008058AE7BE
:101BDC00012B4D460CBF2F48364897E7204630491D
:101BEC00FFF716FF0136A7E7002620463249FFF71C
:101BFC000FFF33461AF803202046A2F120035F2B77
:101C0C0028BF2E222D49FFF703FF0136102E0DD0D1
:101C1C00720703D120462249FFF7FAFEB04533463E
:101C2C00E8D820461E49FFF7F3FEEEE7159BC244A9
:101C3C00B3EB080315937FF473AFB9F1000F0AD01F
:101C4C00FB0704D520460D4A0D49FFF7E1FE394646
:101C5C002046FFF7EFFE6268A168D2E900232068F6
:101C6C0008F0BCFE002263681A6007B0BDE8F08F74
:101C7C00D1040100D504010058F20000CC0401008D
:101C8C00D9FA00006CF20000FA0401000005010012
:101C9C000405010005AA0000A52E0000090501009D
:101CAC005915010057150100640A0020600A002034
:101CBC00DE04010021AA00000F050100110501003E
:101CCC0000210123064A904206D8064A01B9012395
:101CDC001360054B18607047012140085B00F2E768
:101CEC0040420F00600A0020640A00202DE9F341F5
:101CFC0043680DF107011C681048656808F0E9FE9F
:101D0C0030B99DF80710012902D10C4800F030F8C9
:101D1C0001232B7525682F68D5E90136D3E90048D6
:101D2C0024B96B681C6002B0BDE8F08121463046D6
:101D3C004246B847241A0644F2E700BF14E70000F5
:101D4C00F8B50D460446064F4618B44201D1284654
:101D5C00F8BD14F8011BBB6801485B689847F4E7B1
:101D6C0014E70000014B036000207047B4F2000040
:101D7C0070B5C4690D469CB31E4A2379565CB342B8
:101D8C0031D01D4A525C9A4230D1A3689847002842
:101D9C0010DA022D0CD0032D0BD110F1860F07D0C9
:101DAC00D4E8EF3F43F00203C4E8E23F002AF6E731
:101DBC00267170BD022D267101D00020F9E7D4E800
:101DCC00EF3F23F00403C4E8E23F002AF7D1D4E844
:101DDC00EF3F23F00203C4E8E23F002AEDD0F6E720
:101DEC006FF05700E5E76FF07700E2E76FF08500E2
:101DFC00DFE700BFD1160100CD1601002DE9F84335
:101E0C000646FEF761FB0546EFF31188202383F3AA
:101E1C001288BFF36F8F114B1C68D3F804909C424F
:101E2C0008BF002434B988F31188BFF36F8F2046A4
:101E3C00BDE8F883A7683846FEF746FBA84206D1F2
:101E4C002A46394630460CF003FB0028EBD04C45B3
:101E5C0001D02468E6E70024E5E700BF2401002058
:101E6C00F0B585B00E461546FFF7C8FF044658B3CB
:101E7C00C3684BB35F693FB3062E08D0072E26D03C
:101E8C002A4631463B4605B0BDE8F0401847838AE8
:101E9C003BB92A463146B84750B9A38A0133A382CD
:101EAC0006E04FF6FF72934204D00133A382002068
:101EBC0005B0F0BD154B012202930023CDE9003390
:101ECC001846134908F03DFE6FF01500F0E745B1D8
:101EDC002A7832B10022828231462A465B699847C1
:101EEC00E5E7A38A012B08D12A4607212046B847EB
:101EFC000028DDD1A38A013BD1E70BB1013BD5E72B
:101F0C00044A0093CDE901320222D9E769050100A8
:101F1C006CF100008B0501001FB5044608B1806808
:101F2C0068B9134B0293002301221846CDE9003304
:101F3C00104908F006FE6FF0150004B010BDFFF755
:101F4C005DFF08B10C4BEDE7A082EFF3118120236C
:101F5C0083F31288BFF36F8F084B5A68C4E90032C1
:101F6C0014605C6081F31188BFF36F8FE5E700BFED
:101F7C00A90501006CF10000C2050100240100203C
:101F8C0008B5044808F0FAFB034808F0F7FB0020FA
:101F9C0008BD00BFEB0501002006010008B5034891
:101FAC00034A0021121A08F017FE08BDF0040020A5
:101FBC00C4300020074808B5074A0849121A08F02F
:101FCC000DFEBDE808400648064A0749121A08F0FB
:101FDC0005BE00BF60000020F0040020981701002F
:101FEC0060000020600000209817010070B50646C4
:101FFC000D4686B0002938D000248B680122059349
:10200C004B68204604930B6823490393234BCDE97B
:10201C0000440293234608F0E3FD6B69012205930B
:10202C002B6920460493EB681B4903931C4B0094CB
:10203C00CDE90143234608F0D3FDEB69012203935C
:10204C00184B2046CDE9014313492346009408F070
:10205C00C7FDAB6901220393134B2046CDE9014325
:10206C000D492346009408F0BBFD012E0DD1EFF372
:10207C000583103B03930D4B324602930023064914
:10208C001846CDE9003308F0ABFD2946304606B0C2
:10209C00BDE8704006F080B9A4F100004D060100C7
:1020AC007C060100AB060100BA060100E80601003F
:1020BC0030BFFFF7FDBF00BF2DE9F04105460B4EC9
:1020CC00DFF82C80324606EB0807CC1B204609496A
:1020DC000CF08CF9A01942460021083C0CF093F945
:1020EC00AC6707F10800BDE8F08100BF00000000FC
:1020FC00040000000CF200001FB500243E4B3F49C9
:10210C000293012223462046CDE9004408F083FDCA
:10211C003B4B9B6A99016DD53A4B2046CDE9014367
:10212C00012223463549009408F075FD1E20344BDE
:10213C009B6ADA010AD5344B0122029300232F4902
:10214C001846CDE9003308F066FD1F202C4B9B6A26
:10215C00DB020AD52D4B0122029300232749184696
:10216C00CDE9003308F057FD0220254B9B6A1C0378
:10217C000AD5274B01220293002320491846CDE9AA
:10218C00003308F048FD21201D4B9B6A59030AD5EA
:10219C00204B01220293002318491846CDE9003345
:1021AC0008F039FD2220164B9B6A9A030AD51A4B6C
:1021BC0001220293002311491846CDE9003308F09F
:1021CC002AFD23200E4B9B6ADB030AD5134B0122FD
:1021DC000293002309491846CDE9003308F01BFD92
:1021EC002420074A936A6FEA03436FEA134393620E
:1021FC0004B010BD1D209AE7FB060100A4F10000FD
:10220C0000ED00E013070100260701004007010064
:10221C006A07010088070100AD070100C70701002C
:10222C00F0B50024434B85B00293074623460E4677
:10223C0001222046CDE900443F4908F0ECFC3F4B1D
:10224C009B6ADB0465D53E4B2046CDE90143012258
:10225C0023463949009408F0DEFC1720374B9B6A63
:10226C001D050AD5374B012202930023324918462B
:10227C00CDE9003308F0CFFC1820304DAB6A9C053B
:10228C001FD50024304B012220460293CDE9004497
:10229C002346294908F0BFFCAB6BAA6A10040FD582
:1022AC0003932A4B0122CDE90143204623462249C0
:1022BC00009408F0B0FC1FB1AB6A23F40043AB628E
:1022CC0019201E4B9B6A59050AD5214B01220293FA
:1022DC00002319491846CDE9003308F09CFC1A205C
:1022EC00164A936A13F4807315D01A4B0122029389
:1022FC00002311491846CDE9003308F08CFC1B2053
:10230C000E4A936A43F47F4393620023337005B003
:10231C00F0BD1620A2E7926A9204F1D50E4A184637
:10232C00CDE9013204490122009308F074FC1C2011
:10233C00E6E700BFF2070100A4F1000000ED00E0A9
:10234C0008080100190801002C08010045080100CB
:10235C005A080100750801008D080100F0B5002431
:10236C00414B85B00293074623460E460122204678
:10237C00CDE900443D4908F04EFC3D4B9B6ADD061F
:10238C006FD53C4B2046CDE901430122234637490A
:10239C00009408F040FC1120354B9B6A1C070AD5B1
:1023AC00354B01220293002330491846CDE9003306
:1023BC0008F031FC12202E4DAB6A99071FD5002472
:1023CC002E4B0122029320462346CDE90044274997
:1023DC0008F021FC6B6BAA6A12060FD50393284BED
:1023EC000122CDE90143204623462049009408F000
:1023FC0012FC1FB1AB6A23F08003AB6213201C4BA1
:10240C009B6ADD070AD51F4B012202930023174953
:10241C001846CDE9003308F0FEFB1420144B9B6AE0
:10242C009C060AD5184B0122029300230F4918462B
:10243C00CDE9003308F0EFFB15200D4B9A6AD1065D
:10244C0058BF9A6A9A6A920642BF5A6A22F400529C
:10245C005A629A6A42F0FF029A620023337005B006
:10246C00F0BD102098E700BFBC080100A4F10000EB
:10247C0000ED00E0D2080100190801000509010077
:10248C001D090100330901008D0801002DE9F041FF
:10249C00794B0446D3F8048090B00023C8F30806A7
:1024AC0083F31188BFF36F8F02F07F40B0F17F4F41
:1024BC000CD102F00C00082818D1704A1846CDE94E
:1024CC0001326F490122009308F0A5FB00252C4630
:1024DC000027F31E8DF81F70092B00F2B580DFE882
:1024EC0003F00BA9ADA5B3B3B3B3B3B1120746BF99
:1024FC000C461D460125EBE7624B0122CDE9017329
:10250C0000235F491846DFF87081009708F083FBC1
:10251C008DF81F70D8F82C6016F0020604D05A4BB8
:10252C00CDE90173009707E0D8F82C30002B0BDABB
:10253C00564B0096CDE90163002301221846504901
:10254C0008F069FB002239E0D8F82C305B00F9D593
:10255C004F4B0122CDE90163304633464849009682
:10256C0008F059FBD8F81430A26943F48073C8F80A
:10257C001430BFF34F8FBFF36F8F32F8023CD8F893
:10258C00142022F48072C8F81420BFF34F8FBFF3CD
:10259C006F8F03F47F42B2F55F4F2FD1DBB2022B6A
:1025AC002CD12368012203933A4B3046CDE90163C9
:1025BC0033493346009608F02EFB22689DF81F30F5
:1025CC00CBB908AE04F120073346206861680834A3
:1025DC0003C3BC421E46F7D10F9B002D48D0C3F35A
:1025EC00080121B96FEA53236FEA43230F93104676
:1025FC0008A9FFF7FBFC10B0BDE8F0811E4B9A6AEE
:10260C00D2B22AB101200DF11F01FFF7A7FE0FE096
:10261C009A6A12F47F4F05D001200DF11F01FFF7CC
:10262C00FFFD05E09B6AB3F5803F8BD3FFF764FD9C
:10263C000246C3E700200DF11F01E6E700200DF173
:10264C001F01ECE7144B6BE7144A18F4F87F144B9A
:10265C0008BF1346103ECDE90336124B01220293FC
:10266C00002307491846CDE9003308F0D4FA69E78E
:10267C006FF30803BAE700BF00ED00E0800901002A
:10268C00A4F10000AB090100C2090100E30901003B
:10269C00F1090100100A01002C0A01005209010085
:1026AC0067090100500A0100064B5A6942F01002FA
:1026BC005A615A6942F480625A615A6922F00802DE
:1026CC005A61704700ED00E0EFF30880EFF30981E9
:1026DC0001B57246FFF7DAFE01BD00BF002080F3A2
:1026EC001488BFF36F8F002080F30A8880F30B8867
:1026FC000F4880F3088804F037FE00200D4908606D
:10270C00BFF34F8F00F02CF8202080F311880A487B
:10271C004FF40061401880F30988EFF31480022114
:10272C00084380F31488BFF36F8F00F0A5F8000006
:10273C00C8D5002094ED00E0C830002000231846D6
:10274C000649D1F89020C2F30722934200DB704770
:10275C00C1F89830C1F8A0000133F6E700ED00E0B5
:10276C0010B572B6002484F31388FFF7E7FF2346F5
:10277C004FF0FF300C4A03F120010133102B42F8CB
:10278C002100F8D100234FF0FF30074A03F160011C
:10279C000133102B42F82100F8D162B6BFF34F8FF2
:1027AC00BFF36F8F10BD00BF00E100E01EF0040FFF
:1027BC000CBFEFF30880EFF30980816911F8021C5C
:1027CC000229FFD001B5724608F01AFA01BD00BF0C
:1027DC0000B2002807DB01234109034A00F01F0067
:1027EC00834042F82130704700E100E000B200283D
:1027FC000CDB01220649430900F01F008240203304
:10280C0041F82320BFF34F8FBFF36F8F704700BF8A
:10281C0000E100E0054B420953F82220012300F0AF
:10282C001F0003FA00F01040704700BF00E100E009
:10283C0000B2002801F10101ACBF00F16040064B71
:10284C004FEA4111C9B2ABBF00F5614000F00F0077
:10285C0080F800131954704714ED00E0044B054A3E
:10286C0023F07F039360BFF34F8FBFF36F8F7047DD
:10287C000000000000ED00E008B5FFF7EFFF074A8D
:10288C00D2F8883023F47003C2F88830FFF786FB47
:10289C00FFF790FB00F09CF805F090FE00ED00E0D7
:1028AC0042F8203C009B0B4942F81C3C019B21F058
:1028BC00010142F8183C029B42F8081C42F8143CF7
:1028CC004FF0807342F8043C0023203A0265C36742
:1028DC00704700BF2915000000B50D4B15469860D8
:1028EC00826F0C4B0E461A60836E83F30B882C465A
:1028FC0086F309880020044B9847204600210022CB
:10290C000023024C2047000059AC000029150000A0
:10291C00D00C00208C0A00201022014B1A61704749
:10292C0000ED00E0054B5A699B689A421FBF044AB0
:10293C00536843F080535360704700BFD00C0020A5
:10294C0000ED00E0084B9B6883420BD1EFF305834D
:10295C0043B1064B5A6842F080525A605A6A22F4CC
:10296C0000425A6206F0AABAD00C002000ED00E03A
:10297C0014498A684FF030001044EFF3098C80E85A
:10298C00F01F202080F31288BFF36F8F0E4F4FF093
:10299C0000664A698A603E60906F0C4C2060D06F74
:1029AC000023D36780F3118802F1300090E8F01F08
:1029BC008CF3098802F1000004B508F040F9BDE879
:1029CC0004407047D00C002004ED00E08C0A00207D
:1029DC000023202040F20F1210B5044CE1180133F3
:1029EC00934281F80003F9D110BD00BF00E100E073
:1029FC0008B5EFF30583064A103B02EBC30152F80E
:102A0C00330049688847BDE80840FFF78BBF00BF1B
:102A1C0014E8000001480068704700008C0A002090
:102A2C001FB50121094B0A4A0A4800F01DF9002381
:102A3C00064A0393084B0121019301A8D31A029370
:102A4C0000F01CF905B05DF804FB00BF0000042089
:102A5C0000000020B4F20000F00400200A7A0B6899
:102A6C0010B562F304031C46CB68520923F01F0314
:102A7C0043EA4203044A43F00103C2F89800C2F847
:102A8C009C40C2F8A03010BD00ED00E01FB50E4B0D
:102A9C000446D3F89030C3F30723013B98420FD977
:102AAC000A4B03900293002301221846CDE9003310
:102ABC00074908F0F7F86FF01504204604B010BD74
:102ACC00FFF7CCFFF9E700BF00ED00E0670A01005B
:102ADC009CF100002DE9F04F8946144606464FF054
:102AEC000008524D89B0C8452DDAD6F804A0BAF1C9
:102AFC00000F4AD0BAF11F0F17D91AF01F0F14D1BB
:102B0C00D6F800B01BF01F0F0FD1584608F0C1F8D3
:102B1C0007460AEB0B00013808F0BBF8874216D0C9
:102B2C006FF01507424B039702E0424BCDF80C8037
:102B3C000293002301221846CDE900333E4908F0E8
:102B4C00B1F86FF01504204609B0BDE8F08F17F10D
:102B5C00160FE7D0BC42E5DDC5F89870D5F89C108F
:102B6C00C5F89870D5F8A03021F01F0143F01F0B69
:102B7C00D6E900321A44994202F1FF3A1AD1D345F0
:102B8C0007D13146F8B208F09DF808F101080C366F
:102B9C00A9E73146C5F89870D5F89C30E0B263F3DC
:102BAC000402C5F89C2008F08DF810F1160FC8D05F
:102BBC00441CEAE7C5F89870D5F8A020013B23F037
:102BCC001F0302F01F021343D3453146E0B2C5F890
:102BDC00A030E8D008F076F810F1160FB1D0C5F897
:102BEC009870D5F89C209DF818300BF1FF3B62F3E0
:102BFC0004038DF81830D5F8A0309DF818205B0828
:102C0C0063F347128DF81820D6E90032134404936D
:102C1C0023F01F035B44A3EB0A03013023F01F03D3
:102C2C0004A9C0B20793FFF731FFBEE700ED00E047
:102C3C00B30A01008D0A01009CF100000522044B2F
:102C4C00C3F89420BFF34F8FBFF36F8F704700BF53
:102C5C0000ED00E0BFF35F8F0022024BC3F894201D
:102C6C00704700BF00ED00E010B5034C2278FFF771
:102C7C0031FF207010BD00BFAC3000202DE9F74FA4
:102C8C00294D8A4606464FF00008AB46274FD045E3
:102C9C001BDAD6F80490B9F1000F3FD03168084622
:102CAC00019107F0F6FF0199044609EB0100013888
:102CBC0007F0EFFF84424FF014021D4B08D002FBCB
:102CCC0008F36FF015024BF8032003B0BDE8F08F4A
:102CDC0014F1160F2C60F8D01978A142F5DD02FB27
:102CEC0008B0C7F89840C7F89840D7F89C4000F156
:102CFC000801007B64F304000871D7F8A0000C797C
:102D0C00400860F347140C71D7F89C1021F01F0198
:102D1C006960D7F8A01021F01F01296108F10108A2
:102D2C0014350C36B3E700BF900A002000ED00E02C
:102D3C00AC300020F0B55349534DD1F890302C688D
:102D4C00C3F307239C4287B000F299800020FFF761
:102D5C0081FF4E4BC1F8C030844216D14C4D01A8B6
:102D6C002C70FEF7FFFF002607464A4CB74213D1E2
:102D7C0000202B784349D1F89020C2F307229342CC
:102D8C0077DBFFF75BFF002046E0696801EB001181
:102D9C00FFF764FE0130DFE70199300101EB061308
:102DAC00DA682240B2F1807F52D00AD8B2F5001F07
:102DBC0034D0B2F5800F3ED0B2F5801F12D0013660
:102DCC00D4E7B2F1006F43D0B2F1805FF7D15A680B
:102DDC009B680958013B22F01F00034423F01F039A
:102DEC00012032E05A689B680958013B22F01F0011
:102DFC0003440120844623F01F0340EA4C10CDE924
:102E0C0002218DF8100002A928780593FFF73EFEE9
:102E1C0000282ADA6FF0150007B0F0BD5A689B68DD
:102E2C000958013B22F01F0003444FF0020C012013
:102E3C0023F01F03E1E75A689B680958013B22F015
:102E4C001F000344062023F01F034FF0000CD4E7AF
:102E5C005A689B680958013B22F01F0003444FF04D
:102E6C00030C012023F01F03C7E72B7801332B70D1
:102E7C00A5E7C1F89830C1F8A00001337BE74FF00B
:102E8C00FF30C9E700ED00E0C0F20000AAFF4400EB
:102E9C00AC3000200000F0FFF0B587B007460E46BE
:102EAC0014460021102268461D460BF0ACFA022392
:102EBC008DF80230054B2A4621466846CDE904764A
:102ECC00019307F069F907B0F0BD00BF03AD000036
:102EDC0008B5024B1B689847002008BDA40A0020C7
:102EEC00034B044A1860937843F0020393707047C5
:102EFC00A40A00202C01002008B50649064821F040
:102F0C000701C1F1005202F5802207F0C3FB00203B
:102F1C0008BD00BF7B170120A80A002008B5244A71
:102F2C00244B1A6001F0D6FC4FF47A612248D0F899
:102F3C002436C3F30802C3F309434B4382F4807273
:102F4C001E49883201FB02334FF4FA215B00B3FBBC
:102F5C00F1F201FB12331A49B3F57A3F28BF013263
:102F6C00C1F80429D0F820364FF47A60C3F3080274
:102F7C00C3F30943434342F6041082F4807202F215
:102F8C00172200FB02334FF47A701B0AB3FBF0F2EA
:102F9C0000FB12330020B3F5FA7F4FF0010328BF7A
:102FAC000132C1F81C27C1F80009C1F8003608BD70
:102FBC000020A107BC03002000C0FF0010270080E8
:102FCC000000125048B1054B054A1B68B3FBF2F3E5
:102FDC005843044B43F0010318477047BC030020CF
:102FEC0040420F0030F20000084B0246596811B104
:102FFC001968884207D0D86830B1996804488A4269
:10300C0018BF002070471846704700BFB40A002054
:10301C00BC0A002002460B46014805F079BB00BFF4
:10302C00C4040020014805F0E5BB00BFC404002027
:10303C002DE9F74F4FF00009824608460F4690469F
:10304C00FDF742FA4E4683464FF0FF314FF0FF300A
:10305C00FFF7E0FF194B1C689C4208BF00245B681B
:10306C005CB9FFF7DFFF36B3CAF80060B8F1000FA8
:10307C001DD1002003B0BDE8F08FA569A94512D879
:10308C00AB4510D3012D03D97A5D2F2A00D052B94C
:10309C002A463846E16801930BF0DAF9002804BFA0
:1030AC00A9462646019B9C42DBD02468D8E7B3692D
:1030BC00C8F80030DDE76FF00100DBE72C020020E0
:1030CC002DE9F04305461746894687B021B10B78A8
:1030DC002F2B01D14B787BB93F4B0122029300235C
:1030EC003E491846CDE9003307F010FE6FF0150489
:1030FC00204607B0BDE8F0834468002C66D1224618
:10310C0005A8FFF795FF60B1354B2046CDE901438B
:10311C00009423460122314907F0F8FD6FF00104B9
:10312C00E6E7DDF8148098F820309B0702D517F0FD
:10313C00120F4ED1D8F81C201368E3B117F04006DB
:10314C001DD017F002030BD1264A1846CDE90132E7
:10315C0022490122009307F0D9FD6FF00C04C7E758
:10316C0053695BB9204A1846CDE901321B4901224B
:10317C00009307F0CBFD6FF08504B9E70126C5F885
:10318C000480D8F81C303A46494628461B689847B4
:10319C00041E0DDA154B03940026029301223346CC
:1031AC003046CDE900660D4907F0B0FD6E609FE733
:1031BC002F72002E9CD0D8F81C30002128465B6959
:1031CC009847041E94DA0A4B0394E5E76FF00F045A
:1031DC008EE76FF01D048BE7E90A010074F1000023
:1031EC00FD0A0100150B0100430B0100630B0100EC
:1031FC00780B010030B54468054685B08CB1E369A5
:10320C00DB699BB19847041E4FF000030CDA094AA6
:10321C001846CDE90132084901220394009307F0C6
:10322C0075FD204605B030BD6B60FAE76FF0850484
:10323C00F7E700BF940B010074F100001FB5436861
:10324C009BB1DB695B689BB19847041E0ADA0A4B99
:10325C0001220293002309491846CDE90033039457
:10326C0007F054FD204604B010BD6FF00804F9E7D8
:10327C006FF08504F6E700BFAA0B010074F10000A3
:10328C001FB543689BB1DB699B689BB19847041ED3
:10329C000ADA0A4B01220293002309491846CDE9A8
:1032AC000033039407F032FD204604B010BD6FF0DC
:1032BC000804F9E76FF08504F6E700BFBF0B0100C7
:1032CC0074F100001FB543689BB1DB699B699BB12E
:1032DC009847041E0ADA0A4B01220293002309497B
:1032EC001846CDE90033039407F010FD204604B0D6
:1032FC0010BD6FF00804F9E76FF08504F6E700BF26
:10330C00D50B010074F100002DE9F04105460F4684
:10331C0086B011B10B782F2B0FD0314B01220293B9
:10332C00002330491846CDE9003307F0EFFC6FF06D
:10333C001504204606B0BDE8F0814368002B49D146
:10334C00D0F80080B8F1000F44D138462649FDF77B
:10335C00A9F8044678B94FF0FF304FF0FF31FFF772
:10336C0059FE224A6C601368934208BF00232B60FD
:10337C00FFF758FEDDE74246394605A8FFF758FE31
:10338C00064668B11A4B0122CDE9018340464346FB
:10339C001449CDF8008007F0B9FC6FF00104C8E7C0
:1033AC00059BDA69126AC2B16B60DB693946284643
:1033BC001B6A9847041EBCDA0E4BC5E90066012255
:1033CC00CDE901633046334606490394009607F075
:1033DC009DFCAEE76FF00F04ABE76FF08504A8E738
:1033EC00EA0B010074F10000020501002C02002020
:1033FC00FD0A0100030C01002DE9FF414768064658
:10340C000D46002F2DD0FB695B6A002B64D04F1C3E
:10341C0073682946DB6930465B6A9847041E14DBE7
:10342C006B7873B12B78012B0BD138462C49FDF7F7
:10343C0039F80028ECD038462A49FDF733F8002833
:10344C00E6D0204604B0BDE8F081274B0122029360
:10345C00002326491846CDE90033039407F056FCA7
:10346C00EFE7036813B94B700024EAE7DFF88080BC
:10347C004FF0FF304FF0FF31FFF7CCFDD8F8004094
:10348C00D8F80430444508BF002424B9FFF7CAFD1E
:10349C006FF00104D5E73268A24219D10123284606
:1034AC0000F8013BA269E168FF2A28BFFF221944FA
:1034BC000AF09CFF002385F80031C5F80431D8F8D8
:1034CC0004309C4218BF2768FFF7ACFD3760CBE790
:1034DC009C42DBD02468D8E76FF08504B1E700BFCD
:1034EC001E0C01001D0C0100200C010074F10000E9
:1034FC002C02002030B54468054685B01CB9046028
:10350C00204605B030BDE3699B6A93B19847041E11
:10351C004FF000030ADA084A1846CDE90132074990
:10352C0001220394009307F0F1FBE9E7C5E90033AE
:10353C00E6E76FF08504E3E73A0C010074F1000054
:10354C0030B5044687B020B103782F2B01D14378D6
:10355C0073B9204B0122029300231F491846CDE971
:10356C00003307F0D3FB6FF01504204607B030BDD5
:10357C000146002205A8FFF75BFD60B1174B012245
:10358C000293002314491846CDE9003307F0BEFB23
:10359C006FF00104E9E7059890F8205015F002054A
:1035AC0012D1C3695B6B93B121469847041EDCDAD8
:1035BC000B4B0122CDE9015328462B4606490394B7
:1035CC00009507F0A3FBD0E76FF01D04CDE76FF07B
:1035DC008504CAE7E90A010074F10000FD0A010044
:1035EC00550C0100F0B50C46064687B010B10378B7
:1035FC002F2B0ED0304B0122029300232F4918465B
:10360C00CDE9003307F082FB6FF01504204607B0BC
:10361C00F0BDFCF759FF0128074608D142F60173AB
:10362C0023800023A370C4F804310024EEE7314654
:10363C0005AA04A8FFF7FCFC054660B1204B01224B
:10364C00029300231D491846CDE9003307F05EFBB9
:10365C006FF00104DAE7DDE90432BF1A012F10D84C
:10366C002046012200F8012B9A69D968FF2A28BF4D
:10367C00FF2201310AF0BAFE84F80051C4F804515B
:10368C00D3E7DA69176CA7B1224618463146B8471A
:10369C00831C0446DCD00028B8DA0A4B0390CDE931
:1036AC00015301222B4628460449009507F02EFBB6
:1036BC00ACE76FF08504A9E7700C010074F1000011
:1036CC00FD0A01008B0C010070B50E46044686B055
:1036DC0020B103782F2B01D1437873B91D4B0122F4
:1036EC00029300231C491846CDE9003307F00EFB6A
:1036FC006FF01504204606B070BD0146002205A8E7
:10370C00FFF796FC054660B1144B0122029300238F
:10371C0011491846CDE9003307F0F8FA6FF00104AF
:10372C00E8E70598C3695B6C83B12146324698473C
:10373C00041EDFDA0A4B0122CDE9015328462B4641
:10374C0005490394009507F0E1FAD3E76FF085047F
:10375C00D0E700BF700C010074F10000FD0A0100FD
:10376C008B0C01002DE9FF41044608B1C56865B911
:10377C00564B0293002301221846CDE900335449DD
:10378C0007F0C4FA6FF015050DE003687BB1514BDF
:10379C000122029300234E491846CDE9003307F06D
:1037AC00B5FA6FF00F05284604B0BDE8F081284645
:1037BC00FCF78AFE074610B12B782F2B01D0464B15
:1037CC00D7E7464E4FF0FF304FF0FF31FFF722FCAA
:1037DC003568D6F80480B54208BF0025B5B9A56890
:1037EC002846FFF701FC20B1D0F80480B8F1000F97
:1037FC0034D13B4B01220293002335491846CDE9C5
:10380C00003307F083FA6FF0010512E0AB69BB429D
:10381C0020D122692B699A420ED12E4B01220293A0
:10382C0000231846CDE90033294907F06FFA6FF0F1
:10383C000F05FFF7F7FBB6E73A46E968E0680AF0D0
:10384C0007FE034630B9274A2149CDE90102009011
:10385C000122EAE74545C2D02D68BFE7D8F82C30E5
:10386C0063B9214A0395CDE9013218460122184962
:10387C00009307F04BFA6FF08505DAE7D8F8303093
:10388C0053B9E26818460392184A1149CDE901323E
:10389C000093022207F03AFA2046D8F82C309847C9
:1038AC00051E0BDA124B012202930023084918461D
:1038BC00CDE90033039507F029FABAE77368C4E938
:1038CC000678C4E900631C607460B2E7AC0C0100BC
:1038DC0074F10000CA0C0100E80C01002C0200205D
:1038EC001B0D0100FE0C0100470D01006C0D0100C9
:1038FC008D0D010030B5044685B000283FD04FF047
:10390C00FF304FF0FF31FFF785FB236883B91D4A69
:10391C001846CDE901321C4901220394009307F0AB
:10392C00F5F96FF01505FFF77DFB284605B030BDA6
:10393C00E3691B6B5BB9154A1846CDE90132124994
:10394C000122009307F0E2F96FF08505EBE72046C2
:10395C009847051E0BDA0E4B0122029300230A49ED
:10396C001846CDE90033039507F0D0F9DBE7D4E92D
:10397C00003213605A600023C4E90033D3E76FF0C0
:10398C001505D2E7A10D010074F10000BB0D01007B
:10399C00D60D010038B504460D464FF0FF304FF000
:1039AC00FF31FFF737FB2046FFF71EFB08B14368DA
:1039BC007BB90B4B5A6812B1DA686AB9012243F829
:1039CC003240002403EBC2035D60FFF72BFB204663
:1039DC0038BD6FF07704F8E76FF01B04F5E700BF14
:1039EC00B40A00201328DABF024B18566FF00400FB
:1039FC00704700BFDA16010000200149FFF7CABF6B
:103A0C00E8F20000012230B5C1680446ADF5057D31
:103A1C000069114403F01EF80D2818D194F82030D9
:103A2C009A0721D4DB0719D4124B0FCB8DE80F006A
:103A3C00E0684FF40073694604AA013003F02EF8D5
:103A4C0060B90122E1682069114403F003F828B938
:103A5C0094F8203043F0080384F820300DF5057DF0
:103A6C00BDE83040FFF7BEBF6FF01D000DF5057DC2
:103A7C0030BD00BF10F2000038B50446006809F0F4
:103A8C0078F90546216804480AF0ACF82846BDE8E8
:103A9C003840FFF7A7BF00BF3C04002073B50022DD
:103AAC0006460D460023104801A904F003FE044607
:103ABC00B0B90146302201980AF0A5FC0198691CA6
:103ACC00306009F01FF9054620B1019906480AF04B
:103ADC0089F83460284602B0BDE87040FFF782BF19
:103AEC006FF00B0002B070BD3C04002038B50446EA
:103AFC00006809F06FF82168054605480AF072F86D
:103B0C00002323602846BDE83840FFF76BBF00BF99
:103B1C0058040020F7B5002306460D4617461248F8
:103B2C00002201A904F0C6FD0446C0B901462822B2
:103B3C0001980AF068FC0198691C306007F01302C8
:103B4C0008F0D9FD054620B1019907480AF04AF85A
:103B5C003460284603B0BDE8F040FFF743BF6FF078
:103B6C000B0003B0F0BD00BF5804002070B500245A
:103B7C00C16886B006462246204601318DF81740B2
:103B8C0002F068FF054680B1164B0390CDE9014366
:103B9C002046234601221449009407F0A5F9284633
:103BAC0006B0BDE87040FFF71DBF3369052158789A
:103BBC000DF1170203F002FB044670B10B4B03909E
:103BCC00CDE9015301222B4628460749009507F001
:103BDC008BF9042C03D8064B185706B070BD6FF048
:103BEC000400FAE7EF0D010074F10000030E010070
:103BFC00D51601002DE9F04105468EB0012007F0E5
:103C0C00CFF90B260827DFF8E880286807F0B8F909
:103C1C00044678B1002301221846CDE9003335491A
:103C2C00CDF8088007F095F9012C3ED014F1740FF3
:103C3C001CD13CE04FF4D57306937923CDE90B30BE
:103C4C00C823286805A905970D9307F091F960BB67
:103C5C0095F84B20AAB1089BD9B2AA2925D103F417
:103C6C007063B3F5807F0ED06FF08504224B012278
:103C7C00029300231F491846CDE9003307F069F978
:103C8C000FE0079BE8E7B5F86A3043F00803A5F8A6
:103C9C006A30EAB9284600F0E1FB041E18BF6FF049
:103CAC00850420460EB0BDE8F081013EADD1134B2A
:103CBC000322029300230F491846CDE9003307F085
:103CCC0048F9286807F05CF904460028E9D1E1E7D7
:103CDC003B2201231021CDE905230023CDE90B1351
:103CEC00C823286805A90D9307F042F9ECE700BF3B
:103CFC00210E0100C4F10000650E0100340E01001C
:103D0C002DE9FF41002343600223037240F20113AB
:103D1C00438190F837300446DA0700F104081ED4CA
:103D2C0013F0020F0CBF032602260127F6B2414600
:103D3C0020686673677207F003F9054688B11D4B5E
:103D4C0003931D4B3A46029300231C491846CDE9B8
:103D5C00003307F0FEF8284604B0BDE8F0810126D8
:103D6C00E3E7206B07F01CF90223414620686372DD
:103D7C0007F0E6F8054608B1114BE1E72674A4F804
:103D8C006A000646206B07F00BF90E4B4146206883
:103D9C00636007F0D5F805460028DCD00A4B3A469C
:103DAC00CDE90163304633460449009607F0D1F85B
:103DBC00D1E700BF780E0100800E0100C4F10000B5
:103DCC00A10E0100801A0600A80E0100F0B50D46E8
:103DDC0085B0002863D041F8280B83689B697BB1C0
:103DEC009847044678B12F4B0293002301221846C2
:103DFC00CDE900332C4907F0ACF8204605B0F0BDF6
:103E0C006FF05704EFE705F11406304609F035FF63
:103E1C0004460028F1D14BF21B720023304604F00B
:103E2C0077FC044608B1214BDEE72846FFF768FF14
:103E3C00044618B1304607F08AF8DEE72846FFF74B
:103E4C00D9FE0328044619D10127284685F8687045
:103E5C00FFF756FF044650B1154B029300233A4628
:103E6C001846CDE90033104907F073F8E2E728460D
:103E7C00FFF7C0FE044648B10E4BEEE730B13046BA
:103E8C0007F065F8012385F86830B6E70223304661
:103E9C0085F8683005B0BDE8F04007F058B86FF011
:103EAC001204AAE7C20E0100C4F10000F10E0100D9
:103EBC001C0F0100350F010070B505460E4C28682B
:103ECC0007F09CF858B90B26284607F0D8F80128BB
:103EDC000ED1013EF8D1A4F5F414A4F590647D2024
:103EEC007D3C09F01EFE002CE9DC6FF00F0001E0B8
:103EFC000028F4D170BD00BF80969800372310B510
:103F0C008EB0002205931123CDE90B32C82309048E
:103F1C000691044605A900680D9307F061F8034665
:103F2C00F8B90B9A012A11D107990F4A0A406AB1C4
:103F3C000E4A0391CDE901020D490222009007F0CF
:103F4C0064F86FF0040318460EB010BD94F84B20C3
:103F5C00002AF8D1079A12F0200F08BF6FF08503E2
:103F6C00F1E70123EFE700BF0880F9FD5F0F0100C7
:103F7C00C4F100002DE9F04114461E461A44036EAC
:103F8C0005469A42884694B07BD890F86930012B4C
:103F9C000FD13D4B0222029300233C491846CDE938
:103FAC00003307F032F86FF08504204614B0BDE8FA
:103FBC00F08100F1140700233846354A04F0A8FBC1
:103FCC0060B1344B02220293002330491846CDE9EC
:103FDC00003307F01AF86FF00F04E6E7012E14BF58
:103FEC0012231123B5F86A200890900748BF224687
:103FFC000B93B5F864304FF0110158BF04FB03F27A
:10400C000C920322CDE91112C822CDE9054342F2EC
:10401C0010731392286805AA0BA90796CDF8248073
:10402C000A9306F0DDFF0446C0B11B4B03900293CC
:10403C00002301221846CDE90033144906F0E5FFB0
:10404C00164B01220293002310491846CDE9003388
:10405C0006F0DBFF384607F010F8A6E72846FFF716
:10406C002BFF04460028F5D00D4B012202930023B0
:10407C0006491846CDE9003306F0C7FF6FF073040C
:10408C00DEE76FF0150490E78E0F0100C4F100001D
:10409C00B4C40400B10F0100CD0F01000D100100DC
:1040AC00EA0F01002DE9F04F14461F469A18036ED3
:1040BC0005469A420E46A5B000F2B68090F86930DB
:1040CC00012B0FD15A4B0222029300235949184657
:1040DC00CDE9003306F099FF6FF08504204625B03A
:1040EC00BDE8F08F00F1140800234046524A04F05A
:1040FC000FFB60B1514B0222029300234D4918462D
:10410C00CDE9003306F081FF6FF00F04E6E7012FD5
:10411C0014BF19231823B5F86A201293910748BFCE
:10412C002246B5F864304FF0110B58BF03FB04F274
:10413C00139203224FF0C80A42F21079CDE918B25B
:10414C00099006AA286812A90A96CDE90643CDF86B
:10415C0068A00897CDF82C9006F042FF064628463A
:10416C00002E4CD0FFF7A8FE0146002859D118228A
:10417C000CA80AF048F92846B5F85E10FFF7BEFE09
:10418C00044670BB16230422CDE91B300123CDE974
:10419C0021B0CDE90D230C9005F18C0328680CAAF5
:1041AC001BA9CDE91039CDF88CA006F019FF0446F7
:1041BC00B8B9219B012B03D1214C1D9B1C4084B908
:1041CC00D5F88C3001221BBACDE903371D4B1949A8
:1041DC00029300231846CDE9003306F016FF6FF06A
:1041EC000404194B01220293002312491846CDE90D
:1041FC00003306F00AFF404606F03FFF6EE7FFF77C
:10420C005BFE04460028F6D0104B0122CDE9016379
:10421C00304633460749009606F0F7FE6FF07304FC
:10422C00DFE76FF00F04DCE76FF0150456E700BF13
:10423C008E0F0100C4F10000B4C40400B10F0100E2
:10424C000880F9FD1E10010040100100EA0F01006A
:10425C002DE9F041036E054693420E4617468EB08B
:10426C00C0F08F809B1A8B42C0F08B8090F8693025
:10427C00012B0FD1444B02220293002343491846D1
:10428C00CDE9003306F0C1FE6FF0850420460EB078
:10429C00BDE8F08100F11408002340463C4A04F0CC
:1042AC0037FA60B13B4B0222029300233749184680
:1042BC00CDE9003306F0A9FE6FF00F04E6E7032406
:1042CC00C823CDE90C432023059311230B93B5F898
:1042DC006A3000229B0758BFB5F86430286858BF75
:1042EC00734305A9069658BF069306F079FE04465B
:1042FC00002836D12123059311230B93B5F86A308E
:10430C00013E980758BFB5F864303E4458BF73431C
:10431C004FF00002286805A9069658BF069306F0D0
:10432C005FFE0446E8B92623059322230246069035
:10433C00064605A928680B9306F052FE044680B980
:10434C002846FFF7B9FD044658B1134B0122CDE9BD
:10435C000163304633460D49009606F056FE6FF069
:10436C007304404606F089FE002C8FD00B4B0122C3
:10437C000293002305491846CDE9003306F045FEAB
:10438C0084E76FF0150481E78E0F0100C4F1000083
:10439C00B4C40400B10F0100EA0F01004D1001007C
:1043AC002DE9FF4180460E46154600F11407002307
:1043BC003846264A04F0ACF9044668B1244B022274
:1043CC000293002323491846CDE9003306F01DFE65
:1043DC00204604B0BDE8F081711E072933D8DFE810
:1043EC0001F0040B320E1032152DD8F860302B6012
:1043FC00384606F042FEEBE7B8F86430F7E70123E5
:10440C00F5E74046FFF758FD0446F1E74046FFF755
:10441C0053FD48B1104B0222029300230D4918465C
:10442C00CDE9003306F0F1FD0123D8F8000088F83F
:10443C00093008F1040106F0DAFDE5E729464046AB
:10444C0006F08FFEE0E76FF08504D1E7B4C40400FA
:10445C00B10F0100C4F100005A1001002DE9F04F1A
:10446C0004469BB01022002107A809F0CCFF94F859
:10447C004B30002B00F005820021204606F08CFE0C
:10448C000546A0BBB4F86A6084F8690006F008071A
:10449C00C6F3C006B607642009F043FB2923CDE917
:1044AC00113614231793C823CDE918530021204645
:1044BC00FFF724FD0128024624D0002840F0E881B3
:1044CC00206811A906F05AFE0246002840F0E0814F
:1044DC0094F84B20002F00F0D781139B5AB1D807CA
:1044EC000BD43146204606F057FE054630B328461D
:1044FC001BB0BDE8F08F002B1FDB40F23910002100
:10450C0009F044FC0135B5F57A7FCFD1704B01220F
:10451C00029300236F491846CDE9003306F055FE8F
:10452C006FF073056C4B0293002301221846CDE902
:10453C000033684906F049FED9E7E364E36C204692
:10454C00590048BFB4F86A2007A944BF42F00202E0
:10455C00A4F86A20DA0142BFB4F86A2042F02002C3
:10456C00A4F86A209B0342BFB4F86A3043F04003BE
:10457C00A4F86A3006F0F5FD05460028B7D12046B0
:10458C0006F0B7FD05460028B1D1A36A534A934201
:10459C0015D80393524B0322CDE901034D49034631
:1045AC00009006F012FEA36A274647F8043F3946EE
:1045BC00206806F0EAFD054618B14A4BB3E74A4BB2
:1045CC00F2E70146242211A809F01DFF2946182202
:1045DC000BA809F018FF2046B4F85E10FFF78EFC0C
:1045EC000546002883D13323CDE9113011231793CD
:1045FC00C8230126CDE918030823CDE90C3642F275
:10460C001073206804F18C090BAA11A9CDF83C9009
:10461C00109306F0B3FD054600287FF468AFD4F87C
:10462C008C2002F00F03B3424ED0022B44D0002B4F
:10463C004CD0560548BFB4F86A304FEA126144BFFB
:10464C0043F00403A4F86A30D00142BFB4F86A30D6
:10465C0043F48073A4F86A30890742BFB4F86A3017
:10466C0043F08003A4F86A30B4F86A6016F00206CE
:10467C0040D11822314613A8D4F800804FF4007AA8
:10468C0009F0C1FE1023CDE9113A11231793C82369
:10469C004046324611A9199306F070FD804638B396
:1046AC00124B0122CDE9016330463346094900968D
:1046BC0006F08BFD45461AE712F4000F14BF0823D1
:1046CC00042384F86630B4E70223FAE73346F8E7AC
:1046DC00A9110100C4F10000761001003F787D01A2
:1046EC008F100100C410010040787D01EB10010017
:1046FC00A4F864A094F836309B067FF5F8AE94F8D5
:10470C006630012B7FF6F3AED4F85080B8F1000F71
:10471C003FF4EDAE94F85830002113F0020FC3F3C0
:10472C0040022368164684F8672013A84FF018023D
:10473C000CBF4FF0010B4FF0020B0593D4F828A0DF
:10474C0009F061FE102200210BA809F05CFE062383
:10475C00119311231793C82346F0004646F47F06A5
:10476C0046F47F4646F0F006129619930126402334
:10477C00CDE90C3642F2107305980BAA11A9CDF8AD
:10478C003C90109306F0FAFC814600286CD194F80A
:10479C009C3094F8672003F00F039A424BD03D4BAA
:1047AC000222CDE901033C490346009006F00DFDC1
:1047BC0094F84830002B3FF49AAEB4F86A3058079E
:1047CC007FF595AE2422002111A809F01CFE20468D
:1047DC00B4F85E10FFF792FB064600BB062311935C
:1047EC0001231793C823CDE918030223024611A90C
:1047FC002068129306F0C2FC064680B9179B012B69
:10480C0003D1264E139B1E404EB904233946206813
:10481C00A37206F0BAFC064600283FF468AE204BA3
:10482C000122029300231C491846CDE9003306F0FF
:10483C00CCFC354623E03946206884F80BB0D045D3
:10484C0094BFC4F80480C4F804A006F09EFC814612
:10485C000028ADD0134B3246029300230E49184664
:10486C00CDE9003306F0B1FC0F4B0122029300237B
:10487C0009491846CDE9003306F0A7FC4D460B4B11
:10488C0051E66FF0850532E6002A3FF457AE28E674
:10489C00154647E60C110100C4F100000880F9FD33
:1048AC006B1101002A1101004A1101009511010040
:1048BC0000210369426883F8CC105268C3F8D820F1
:1048CC00034AC3E9372003F1D000FDF725BB00BF35
:1048DC0038F300000122024BC3F80424704700BFD8
:1048EC00002008E0084B70B5C31A0D4607499B1011
:1048FC00044659434022064806F0EEFC2B4601467E
:10490C002046BDE870401847C00B0020B76DDBB6E1
:10491C0074E60000402373B50B4C0093041B0B464C
:10492C000D460A49A41061430646094A094806F097
:10493C00FFFC014628B130462B4602B0BDE8704062
:10494C00184702B070BD00BFC00B0020B76DDBB6BE
:10495C00A9B3000074E60000F8B500220121054659
:10496C0040F20510FDF764FF0F4802F09DFD044670
:10497C00B8B902F0B9FD2F690C49384605F05AFF59
:10498C00031E09DB01263E642D69084905F11C0054
:10499C0005F050FF031E02DA1C462046F8BDEE64FB
:1049AC00FBE76FF00404F8E7E54A000050F3000061
:1049BC001FB5002201236C46CDE902236B46074A42
:1049CC00CDE9004406F0E3FC28B943F60952002374
:1049DC00684603F093FF04B010BD00BFBBB30000EA
:1049EC0010B5EFF31184202383F31288BFF36F8F7C
:1049FC00074A136823F00201DB07116002D401207F
:104A0C0008F09CFC84F31188BFF36F8F10BD00BFBE
:104A1C00100C00200C22104B014602FB003300202E
:104A2C0030B4D3E90E529863EFF31180202484F351
:104A3C001288BFF36F8F1C6C04F0C00444F00204A6
:104A4C001C6480F31188BFF36F8F1DB12B4630BCF3
:104A5C000248184730BC7047C00B002074E60000B9
:104A6C0010B4EFF31180202282F31288BFF36F8F02
:104A7C0016490B6843F0020413F001030C6017D0C5
:104A8C00134BD3F80C3413F4803311D0EFF31181A2
:104A9C0082F31288BFF36F8F0E4A136C03F0C003BE
:104AAC0043F00203136481F31188BFF36F8F01236A
:104ABC0080F31188BFF36F8F1BB1002010BCFFF780
:104ACC00A9BF012010BC08F031BC00BF100C0020A5
:104ADC0000E01050C00B0020022808D0042808D198
:104AEC00044B186C10F0070003D1FFF793BF0120A3
:104AFC00FBE77047C00B00202DE9F04101228046F6
:104B0C003549D1E8EF3FC1E8E02F0028F9D133B99E
:104B1C00324933484B60CB608A6005F09EFE08F149
:104B2C00FF33012B4BD8B8F1010F06D12D4BD3F825
:104B3C00503403F00303012B41D009F0B1F80546C2
:104B4C0050B1EFF31186202383F31288BFF36F8FDC
:104B5C000125244C244F20E0244B1B78002BF0D053
:104B6C000422204B0646C3F80823F2E74DB3304627
:104B7C0006F080F8D4F8403413F0FF030DD1D4F8CC
:104B8C00082152B1C4F80831D4F80831202201238D
:104B9C00C4F84034C7F8A0212361D4F84C24D4F8CD
:104BAC004C34D203E2D503F00303012B02D0B8F14D
:104BBC00010FDBD155B186F31188BFF36F8FBDE8C0
:104BCC00F0810021202009F0E1F8D3E70422054B05
:104BDC00C3F80423F3E700BFBC0B0020AC0B002090
:104BEC00DC0B002000E0105000E100E0C23000209F
:104BFC0008B5074808F0B1FF38B10648FEF770F960
:104C0C000448FCF785FC002008BD6FF01200FBE7A0
:104C1C0014E70000254C00000A2838B50446074D5F
:104C2C0004D1AB680D2128465B689847AB680348F4
:104C3C005B68E1B29847204638BD00BF14E700001E
:104C4C0070B546680546B068C0B108F05DFD014618
:104C5C00A0B9B06802F0A0FE0446A8B902460C49FF
:104C6C00B06808F03BFD22460121DB20FDF7E0FD9A
:104C7C002246012140F20D10FDF7DAFD2846BDE871
:104C8C007040044905F03ABF6FF0040070BD00BFDE
:104C9C00214E000065B400002DE9F04340F20635CA
:104CAC004768D00648BF4FF0030C3B7C02EA050571
:104CBC0058BFC2F3401C87B001F01F06B5F5837FC7
:104CCC00144646EA43168DF803C045D00DD8062D80
:104CDC0044D005D8A5B1022D12D06FF0150038E0E4
:104CEC00B5F5807FF9D101250AE040F20222954208
:104CFC0036D0B5F5407F35D0B5F5007FEDD1042524
:104D0C00220331D501237A688B405360B86890BB7D
:104D1C005F2E06F01F034FEA561175D83C4A52F825
:104D2C002120C4F3004102EB8302D2F8803081F0E1
:104D3C000101C4F3404423F4706344EA410423F0BA
:104D4C000F031C4344EA8C0444EA0524C2F8804057
:104D5C00002007B0BDE8F0830925D1E70825CFE78F
:104D6C000625CDE70525CBE7630341BF01237A6810
:104D7C008B409360CAE731460DF1020208F0B1FC9A
:104D8C0014F4403F80460CD13146B86808F0C2FCA0
:104D9C00B8F1000FDCD19DF80210B86802F034FEB7
:104DAC00D6E74FF0000901ABCDE90199CDE9043903
:104DBC00CDF80C903146B86803AA08F0DBFB4845E7
:104DCC00C6DB14F4003314D09DF80330C4F3004454
:104DDC0084F001048DF80E308DF80C508DF80D40D8
:104DEC004B463146B86803AA02F060FD0028CFDAC2
:104DFC00AEE7CDE904330DF1030303933146B868F4
:104E0C0003AA08F0B7FBF1E7203350F82330FFDE9C
:104E1C0074F300004209022A034670B503D0012A3C
:104E2C0018D0CAB170BD0E4E326951680029F9D044
:104E3C00012503F01F030C689D400029F2D08A68FD
:104E4C002A4002D030464B6898473CB12368214633
:104E5C001C46F2E7034EE7E7034EE5E72346F6E789
:104E6C00D4E60000B4E6000094E60000F0B5446817
:104E7C001646A068227C01F01F0587B045EA421552
:104E8C0000286CD0B6F5001F04D1294608F094FC1C
:104E9C00002055E06268607CB6F5800F50624FF0E0
:104EAC00000001AA0190506039D1B3F1007F14BF0A
:104EBC00052304238DF804300023CDE90423039348
:104ECC00E3680DF1030723FA01F111F0010139D167
:104EDC00B6F1A07F36D105F01F035F2D4FEA5510B8
:104EEC0003F120033ED8214A52F8202052F82330F7
:104EFC00DB0727D43A462946A06808F0F2FB1630A7
:104F0C0018D002972946A06803AA08F033FB0028A2
:104F1C0016DB01222946A06808F0FEFBB8E7B3F1C6
:104F2C00C06F05D0B3F1007F14BF01230223C1E78A
:104F3C000323BFE73946A06802F070FD0028E0DAD1
:104F4C0007B0F0BD3A462946A06808F0CAFB002815
:104F5C00D8D19DF80310A06802F056FDD2E76FF08F
:104F6C008500EDE751F82330FFDE00BF74F300003D
:104F7C0030B587B0194D284608F0EFFD0346E8B967
:104F8C002A6817490392174A0090CDE901020122C1
:104F9C0006F066FA6FF01204204607B030BD2B689D
:104FAC0001220393104B0E490293002305941846DB
:104FBC00CDE90033049206F053FAEDE72A69A968AB
:104FCC001368284623F0020313600B6800220121AA
:104FDC009847041EE3DB0024DEE700BF94E60000E4
:104FEC007CF100001C12010033120100036803F075
:104FFC001F025F2B02604FEA53129ABF024B53F809
:10500C0022000020704700BFBCF300002DE9F74FD1
:10501C00154607464FF0010800EB8101B94203D158
:10502C00002003B0BDE8F08F3A68C2F3C323082B0D
:10503C00C2F3080400F29A804E48C65C40F2FF139B
:10504C009C4208BF4FF0FF34B2F1B05F4FEA1263DD
:10505C000ED2152B10D8DFE803F01221605D265814
:10506C005D0F0F0F0F636E0F0F0F0F0F0F0F71747C
:10507C00382B69D04E2B50D06FF08500D1E7C5F896
:10508C000446621C3FD001A80194FFF7AFFF019BBF
:10509C004FF0010908FA03F3436012E0C5F80C461F
:1050AC004FF0000A43E04FF00009C5F80046601CC1
:1050BC0029D001A80194FFF799FF019B08FA03F38B
:1050CC0083604FF0010AD7F800B001A81BF4004F21
:1050DC001CBF4FF001094FF0000A0194FFF786FF47
:1050EC00019B254C00EB8300D0F88020CBF3412BA7
:1050FC00330243EA8B0343EA0A031440234343EA93
:10510C004903C0F88030043788E7C5F804464FF0EF
:10511C000109CCE7C5F80846C2E7C5F81046B0E768
:10512C00C5F80046002EBBD14FF0000A0826631CC0
:10513C00E9D0D146C7E7C5F80446F3E7C5F84045C2
:10514C00E5E7C5F84445ABE701A80194FFF74EFF2E
:10515C00019B4FF0010A00EB8300D0F8803023F064
:10516C00E04343F08043C0F88030E0E76FF0150077
:10517C0057E700BFEE160100F0F0FCFF7FB50BAB5C
:10518C0005930393054B0122029300231846CDE9A6
:10519C000033FCF7D9FB07B05DF804FB7612010075
:1051AC00F0B5446885B094F82670054607F00307FF
:1051BC003E1E18BF012606F081F9A06A30B93146AF
:1051CC00284605B0BDE8F04006F0F1B908F0C5FC82
:1051DC00034670B9A26A1A49126800900392194AE0
:1051EC00CDE901020122FFF7C9FF6FF0120005B0F3
:1051FC00F0BD002F0CBF4FF4B0134FF4D013E28D61
:10520C00A06A94F82C101A430127D0F810C042F36E
:10521C00000303F44023DCF80040534023F48012D5
:10522C008F40DB07D0F808E04CBF3C43BC43CCF8C4
:10523C000040DEF8003098470028C0DAD7E700BFFE
:10524C00BCF100007612010003460A46F0B419794D
:10525C00DB88006813430125094A06699A433468C0
:10526C0008BF83F440238D4023F48012DB0787684A
:10527C004CBF2C43AC4334603B68F0BC184700BFB8
:10528C00010010000369024A5B6800201A60704735
:10529C00801A06000B4610B52422446800211846DB
:1052AC0009F0B1F8074A426062690260A269826043
:1052BC00C27B42F00102C273012280F8232000203D
:1052CC0010BD00BF801A060073B50C4C456806690A
:1052DC000123716828680DF1070206F04BFA28B912
:1052EC009DF80700FF2803D1013CF1D202B070BD3C
:1052FC00002CFBD16FF07300F8E700BF40420F00A9
:10530C007FB545680669286808F027FC38B36868DB
:10531C00B0B12C1D08F021FC08B320464FF4B0119D
:10532C00FFF792FF044658B1194B039002930023E8
:10533C0001221846CDE90033164906F057FA10E061
:10534C00E868D8B10C3508F008FC034660B9124A7D
:10535C001049CDE901020090012206F047FA6FF0E6
:10536C001204204604B070BD4FF480312846FFF77C
:10537C006BFF041E03DA094B0394D7E7044633464C
:10538C00012203F8082B73600023B360E9E700BF28
:10539C00D6120100CCF10000FA1201001C1301001E
:1053AC002DE9F04F43689DB006930369D1F81CA01A
:1053BC000546894616460021142214A8079309F0C5
:1053CC0022F80C23202113930123CDE919134FF458
:1053DC007A731B93002E56D001224946284606F0BC
:1053EC004CFA0AF1FF3A0446002840F09580D6E9C1
:1053FC0001276B68D5F810B00593D9F80030D6F8B2
:10540C001080183B012B00F29B800DF126030D93AD
:10541C000123CDE90E380AAB1193022312930DAB85
:10542C000B930323022F0C9334BFFE23FC23109207
:10543C008DF82630002F3CD1B368012B17D9FD23F2
:10544C008DF82630012305980C93DBF804103B46AD
:10545C0000680BAA06F088F90446002850D13A4699
:10546C002846716906F0D1F90446002C48D1D9F8C8
:10547C000030122B0FD1002442E0BAF1000F0AF1D8
:10548C00FF3309DD9A4600224946284606F0F5F915
:10549C0004460028F1D10024069B1868079B596824
:1054AC0083685B689847002C18BF20461DB0BDE888
:1054BC00F08F41467268002005F09EFE40BAADF8B0
:1054CC00280005980023DBF8041000680BAA06F0EE
:1054DC004BF90446A0B905980123DBF804100068C9
:1054EC000DF1270206F046F9044648B99DF827301D
:1054FC0003F00F03052B14D00B2B7AD16FF089041A
:10550C000022284613A9D9F81C7006F0B6F908B188
:10551C00002F71DC002CBED0BAF1000F3FF75CAF4E
:10552C00BAE773680246984428467169CDF83C8006
:10553C0006F06BF9013F044600283FF47BAFDFE730
:10554C000BAB0D9301232846CDE90B820E93FFF78D
:10555C00BBFE041ED4DBFE2C4BD1013F85D305983A
:10556C000022DBF8041000680DAB06F0FDF80446D1
:10557C0050B1254B01220293002324491846CDE952
:10558C00003306F033F9BBE705980323DBF804106E
:10559C000AAA006806F0EEF841460446726800203C
:1055AC0005F02AFEBDF828305BBA9BB283420AD0C4
:1055BC00174B01220293002314491846CDE90033FE
:1055CC0006F014F99AE773689844CDF82C80002FF4
:1055DC00C3D02846FFF778FEFE280446BDD00D4BFD
:1055EC0001220293002309491846CDE9003306F045
:1055FC00FDF86FF0040483E70022284613A906F097
:10560C003CF9013F044682E746130100CCF100004F
:10561C0058130100651301002DE9FF41064634695A
:10562C000D466268096813684068994217D043694F
:10563C00994204D96FF0850004B0BDE8F08171B1D6
:10564C0004F10807BA4204F1240356D1A1601946AB
:10565C0052F8047B9A4241F8047BF9D163602B79B0
:10566C00022BE7D16A792378934264D0022A4368EB
:10567C004FD1ABB10121043006F062F80746002887
:10568C0038D1002140F2654008F080FB2F4B0322FB
:10569C00CDE9017338463B462D49009706F0A6F834
:1056AC003269D6F80480566833680BB9294B3360DD
:1056BC00B388314643F48043B380D8F800000A2302
:1056CC00403206F057F80746D8F800008368314698
:1056DC005B689847B388384323F48043B38028D061
:1056EC001D4B01220293002319491846CDE90033C2
:1056FC0006F07CF86FF004009EE73A46616204F114
:10570C00400153F804CB8B4242F804CBF9D16760CB
:10571C00A5E773B10021043006F012F80346002807
:10572C00E8D10E4A0A49CDE901020090032206F0A5
:10573C005DF86B792370AB79012B7FF47BAF6B7ABF
:10574C00012B7FF477AF002076E700BF6F130100C9
:10575C00CCF10000801A06007A13010099130100A5
:10576C0038B5054644680121E06806F08FF96B688E
:10577C0019686369C1F82435E28BA38BA07E1343AF
:10578C00228C1343628C1343627E9BB20243207EB5
:10579C0002431343C1F86C3569680B68D3F80022D7
:1057AC0042F48022C3F800220822C3F800254A6A7A
:1057BC000121C3F83C270022C3F840271965D3F810
:1057CC0030110029FBD0C3F800252846BDE838402D
:1057DC00014905F093B900BFF3BA00002DE9F3417C
:1057EC0004460D46476808F05BFA88B12022EFF3B7
:1057FC0011831E4682F31288BFF36F8F61680968AC
:10580C00D1F83011D1B983F31188BFF36F8FEEE764
:10581C00224B1B78002BE9D04FF0200864266368DC
:10582C001B68D3F830313BBB012007F048FD013E2B
:10583C00F5D10021202008F0A9FAEFE77B6A204679
:10584C001D7063680DF107017F6A1D6805F041F951
:10585C009DF807204AB90123C5F83C77C5F84037B5
:10586C00C5F83021D5F830212B6586F31188BFF3AC
:10587C006F8F02B0BDE8F081EFF311831E4688F301
:10588C001288BFF36F8F62681268D2F83021002A39
:10589C00D4D183F31188BFF36F8FCAE7C2300020D5
:1058AC00F0B54FF4FA5307460026446C47F6122C19
:1058BC005C4357F8203B05461B683146B4FBF3F4B8
:1058CC0040F2E730C83485B04FF47A720023E4FB21
:1058DC000C01FAF7CDFD02460B46384603F00EF8E4
:1058EC0068B1084B3046CDE90163012233460649C5
:1058FC00009606F060F96FF0730005B0F0BD286BF0
:10590C00FBE700BFDC130100E4F1000038B50446EE
:10591C00056906F0CAFA014670B9012205F1B40016
:10592C0008F0B2F905F15C0006F055F92046BDE827
:10593C003840024905F0E2B838BD00BF75BE000022
:10594C007FB50D1E064604690BDAE16D06F067FAA9
:10595C00C4F88C5004F17C0004B0BDE8704002F037
:10596C0099BFD4F8A8305BB19D421ED9304B0122AF
:10597C00029300232F491846CDE9003306F01BF99A
:10598C00D4F8B0305BB19D4230D9294B012202933F
:10599C00002328491846CDE9003306F00CF93046AF
:1059AC0004B0BDE8704006F043B95B1BC4F8A830E6
:1059BC00A3B9D4F8903004F1A8020833C4F890309D
:1059CC00D4F8943004F19401013BC4F8943004F100
:1059DC00900006F0DDF8C4F8A400D1E7D4F8A430A8
:1059EC00002BCDD02B44C4F8A430C9E75B1BC4F802
:1059FC00B030A3B9D4F8983004F1B0020833C4F82D
:105A0C009830D4F89C3004F19C01013BC4F89C30D4
:105A1C0004F1980006F0BCF8C4F8AC00BFE7D4F869
:105A2C00AC30002BBBD02B44C4F8AC30B7E700BF74
:105A3C0002140100E4F100002DE9F04198468B8836
:105A4C000E46990407461546046900F182804FF012
:105A5C00FF324FF0FF3304F16C0002F04FFF26666B
:105A6C00002D7FD1C4F890500023C4F8943004F179
:105A7C00A80204F1940104F1900006F089F805469F
:105A8C00C4F8A400B8F1000F74D1C4F898800023B6
:105A9C00C4F89C3004F1B00204F19C0104F19800AC
:105AAC0006F076F800231A46D4F894C0C4F8AC007B
:105ABC00C4F88C30624566D100221146D4F89CE0C3
:105ACC00714568D193422CBFC4F8A030C4F8A02013
:105ADC0015B1D4F8A8302BB900286FD0D4F8B03059
:105AEC00002B6BD03146384600F06EF8054610BBE3
:105AFC0004F15C08E66504F1B405284602F024FFC5
:105B0C003846304906F074F94FF0FF324FF0FF334E
:105B1C00284602F0F3FE3146384606F06AF938465C
:105B2C0006F086F84046FFF7BBFE054600283BD141
:105B3C00B3889A040AD4E36D13B19B889B0405D4F3
:105B4C000023236604F16C0002F0A4FE2846BDE895
:105B5C00F081636F002B7FF47AAF236E9E427FF44B
:105B6C0076AF7DE72B68C4F89030002B3FF47CAF08
:105B7C006B687AE7D8F80030C4F89830002B86D0E0
:105B8C00D8F8043084E7D4F8901001EBC2014968CE
:105B9C0001320B448EE7D4F898C00CEBC10CDCF846
:105BAC0004C0013162448BE710F1740FC3D1384645
:105BBC0006F057F94046FFF773FEBCE76FF015058A
:105BCC00B9E700BFB1BC0000F0B505690C4695F80B
:105BDC0028308FB00BB3EA6A0B689A421DD12A6B3E
:105BEC004B689A4219D195F84030097D994214D1ED
:105BFC00B5F84420238B9A420FD16B6BA268F9B194
:105C0C009A420AD1AB6BE268534033F47F4304D120
:105C1C00EA6B23699A4200F0B980A28812F4006101
:105C2C0013D05D4B0122029300235C491846CDE949
:105C3C00003306F03BF86FF0850630460FB0F0BD30
:105C4C009A42EAD1AA6BE368E4E712F001030ED0A2
:105C5C00036801220393524B0091CDE901130B46CB
:105C6C004E49184606F022F86FF01506E5E712F0DB
:105C7C00080109D04B4A0093CDE9013201221846A4
:105C8C00464906F013F8EFE702F4FC63B3F5807FA6
:105C9C0005D0454BCDE9011300910B46EEE7266884
:105CAC00424B9E4201D8424BF4E72B684768D3F82D
:105CBC000066731C0FD012F0020206F01F0C3D4B55
:105CCC004FEA561643D1022E62D853F826200123F0
:105CDC0003FA0CF393604FF0FF330793BB7F2268FA
:105CEC008DF82230BB699A4294BF09920993A3881C
:105CFC00990703F0040233D5002A0CBF02220322B9
:105D0C00C3F300138DF829304FF0FF330B9397F842
:105D1C0020308DF828208DF8303001238DF8333069
:105D2C008DF8343095F82830E3B1284604A907F0F3
:105D3C00F3FD0646E8B1204B0390029300230122A9
:105D4C001846CDE90033154905F0B0FF75E7022E72
:105D5C0020D853F82620012303FA0CF35360BAE73A
:105D6C009208CDE70346154A284604A907F0B3FD6F
:105D7C00DFE705F12C0304F11C0254F8041B9442D8
:105D8C0043F8041BF9D1012385F82830002654E789
:105D9C009260FFDE4960FCE72A140100E4F1000088
:105DAC0044140100661401008514010047E8010049
:105DBC00B4140100B4F50000E5140100C7BD0000E7
:105DCC0070B40F4CD4E90015501A63EB050640096A
:105DDC0040EAC6602026E0FB0615C4E90015002445
:105DEC0000250849C1E90023074BC3E90045EFF33F
:105DFC00118186F31288BFF36F8F70BC03F03ABA2F
:105E0C0010050020F80400200805002008B5002229
:105E1C000121E420FCF70CFD164A0020D2F81837BB
:105E2C0023F44033C2F8183701F040FF002820DB80
:105E3C000120114901F0C6FF00281ADB01F010FF08
:105E4C000E4B20F01F00C3E900010D4B0022C3E9EB
:105E5C0000014FF0FF304FF0FF310A4BC3E9000156
:105E6C00094B0A49187A01F00BFF67220020084BF6
:105E7C001A6008BD00200E50B80300201005002049
:105E8C00F0040020F8040020B0030020CD5D0000D9
:105E9C00A80C002008B501F0E3FE064AD2E9003256
:105EAC00C01A054B61EB0201C3E90001400940EA4D
:105EBC00C16008BD1005002008050020F7B5224B75
:105ECC000146224F187A224BD7E90056D3E900231A
