:1000000060D50020E1260000E1A80000CD26000018
:10001000CD260000CD260000CD260000CD26000014
:10002000000000000000000000000000B1270000F8
:10003000CD2600000000000075290000CD2600003C
:10004000F5290000F5290000F5290000F529000038
:10005000F5290000F5290000F5290000F529000028
:10006000F5290000F5290000F5290000F529000018
:10007000F5290000F5290000F5290000F529000008
:10047C0053B94AB9002908BF00281CBF4FF0FF31FF
:10048C004FF0FF3000F00CB8ADF1080C6DE904CE64
:10049C0000F022F8DDF804E0DDE9022304B0704737
:1004AC00704700BF10F8012B11F8013B012A28BF3F
:1004BC009A42F7D0D01A7047034611F8012B03F873
:1004CC00012B002AF9D17047034613F8012B002A9F
:1004DC00FBD1181A013870472DE9F0478C468E462F
:1004EC00089E154604461946002B40F0D0807245F4
:1004FC0047D9B2FA82F74FB1C7F120030EFA07FCC5
:10050C00BD40BC4020FA03F343EA0C0C4FEA154EF5
:10051C00A8B2230CBCFBFEF80EFB18CC08FB00F9B0
:10052C0043EA0C43994528D9EB1808F1FF3204D261
:10053C00994502D9A8F102022B44A3EB0903A4B2FA
:10054C00B3FBFEFC0EFB1C330CFB00F044EA034433
:10055C00A04214D92C190CF1FF3304D2A04202D9B9
:10056C00ACF102032C44241A43EA02401EB1FC40B5
:10057C00002334607360BDE8F0874246DDE76346D4
:10058C00F1E7002A79D0B2FA82F3002B3FD019465A
:10059C00C1F1200302FA01F500FA01F42EFA03F27C
:1005AC000EFA01FE20FA03F3AFB243EA0E034FEA50
:1005BC00154EB2FBFEFC0EFB1C201A0C0CFB07F8B4
:1005CC0042EA004290455AD9AA180CF1FF3004D2E5
:1005DC00904502D9ACF102002A44A2EB08029BB26E
:1005EC00B2FBFEFC0EFB1C220CFB07F743EA02439A
:1005FC009F4246D9EB180CF1FF3204D29F4202D92C
:10060C00ACF102022B44DB1B42EA004202E0AEEBEF
:10061C00020301224FEA154EAFB2200CB3FBFEFCD5
:10062C000EFB1C330CFB07F840EA034398452AD910
:10063C00EB180CF1FF3004D2984502D9ACF1020052
:10064C002B44A3EB0803A4B2B3FBFEFC0EFB1C3340
:10065C000CFB07F744EA0344A74216D92C190CF1FA
:10066C00FF3304D2A74202D9ACF102032C44E41BA1
:10067C0043EA00400F46114678E71F2188E76046A1
:10068C00ABE76246BFE76046DBE76346EFE77345DF
:10069C0006D916B9002108466DE7C6E9000EF9E740
:1006AC00B3FA83F787B9734501D3824207D8841A0A
:1006BC006EEB030301209C461EB900215BE7384614
:1006CC00FAE7C6E9004CF8E7C7F1200CBB4000FA8A
:1006DC0007F422FA0CF520FA0CF1BA401D432EFA5D
:1006EC000CF30EFA07FE4FEA154941EA0E011FFA08
:1006FC0085FEB3FBF9F809FB18300B0C08FB0EFA5E
:10070C0043EA00439A4540D9EB1808F1FF3004D274
:10071C009A4502D9A8F102002B44A3EB0A0389B233
:10072C00B3FBF9F809FB183308FB0EFE41EA034151
:10073C008E452CD9691808F1FF3304D28E4502D9A5
:10074C00A8F10203294443EA0040A1EB0E01A0FBEF
:10075C0002984145CE46434602D306D14C4504D2BD
:10076C000138B9EB020E68EB0503002EA5D0B4EBF3
:10077C000E0261EB030101FA0CFC22FA07F3F940BB
:10078C004CEA0303C6E9003197E74046C5E7434608
:10079C00D9E70000002313B515496846CDE90033AD
:1007AC0002F0AEFD1249024620B1124809F04CFE8F
:1007BC0002B010BD104809F047FE104C68460F49B6
:1007CC0002F016FE80B9637873B12378012B04D143
:1007DC000B490C4809F038FEF0E7D4F8042108491D
:1007EC00094809F031FEE9E7684602F07FFEDFE7D1
:1007FC002EF0000033F0000055F00000B806002089
:10080C00B90600206AF000007EF0000030B52D48DB
:10081C00D7B009F019FE01242B4D402123462B4A59
:10082C0004A809F0F5FA14A904A802F0D7FE10B92F
:10083C000134AC42F1D10023122204A901A8CDE964
:10084C0001338DF80C3002F037FC60B1204A21489E
:10085C00136804A90133136009F0F6FD1E4809F072
:10086C00F3FD57B030BD05221C4901A802F004FD70
:10087C00044601A802F022FD01A802F0B7FC052CE9
:10088C0013D1174A04A91368164801331360224682
:10089C0009F0DAFD104809F0D7FD2F22124804A9FF
:1008AC000DF02CF9FFF776FFDBE7094A0F481368C8
:1008BC0004A901331360224609F0C6FD064809F06D
:1008CC00C3FDEFE79EF00000A1860100D9F0000007
:1008DC00C0070020E9F000008CFA0000FCF00000DA
:1008EC00C407002002F10000223000202AF1000091
:1008FC0000B54B48C3B009F0A7FD4A4802F01CFEF6
:10090C00002860D1484A47491368484801331360AE
:10091C0009F09AFD464809F097FD464802F00CFE96
:10092C00002857D1404A43491368404801331360AB
:10093C0009F08AFD3E4809F087FD6946394802F006
:10094C004DFE00284DD0384A364913683A480133D9
:10095C00136009F079FD364809F076FD6946354893
:10096C0002F03CFE002843D02F4A3249136832482B
:10097C000133136009F068FD2D4809F065FD2F481F
:10098C0002F0B4FF00283AD1274A2D4813680133EE
:10099C00136009F059FD264809F056FD274802F06E
:1009AC00DDFE002831D1204A26481368013313603C
:1009BC0009F04AFD1E4809F047FD204802F096FF59
:1009CC0043B05DF804FB204A164913681F480133F5
:1009DC0013609DE71C4A174913681C4801331360C8
:1009EC00A6E7194A0F491368194801331360B0E799
:1009FC00154A10491368164801331360BAE7124AB6
:100A0C001448136801331360C3E70F4A1248136884
:100A1C000133136009F018FD054809F015FDCFE707
:100A2C0052F1000086F10000C407002096F100008E
:100A3C008CFA0000BCF10000CBF10000F0000020AB
:100A4C0007F2000029F20000C0070020A9F1000005
:100A5C00E9F1000018F200003AF200002DE9F04F25
:100A6C0089B0002142F29F400CF0D4FC7B4809F085
:100A7C00EBFC7B4809F0E8FC7A4809F0E5FC7A4885
:100A8C0009F0E2FC764809F0DFFC00240022062184
:100A9C00764801F0E1F9002859D11CB17448610085
:100AAC0009F0D2FC0025734C7348CDE9035509F0CD
:100ABC00CBFC236871480133236009F0C5FC6748FF
:100ACC0009F0C2FC0121694803AA01F0C5F900280C
:100ADC0057D06B4A6B4813680133136009F0B4FCB0
:100AEC005E4809F0B1FC0221604804AA01F0B4F997
:100AFC00002859D0624A644813680133136009F026
:100B0C00A3FC564809F0A0FC604809F09DFC604825
:100B1C0002F024FE024600286CD123685D490133A3
:100B2C005D48236009F090FC4C4809F08DFC04A949
:100B3C00584802F0C5FD0146002800F0D580504A07
:100B4C00564813680133136009F07EFCF0E0002274
:100B5C000721464801F080F944B9514809F074FC6A
:100B6C00504809F071FC504809F06EFC01344F48B4
:100B7C00610009F069FC00214FF224400CF04AFCA2
:100B8C0084E7039951B1236849480133236009F084
:100B9C005BFC324809F058FC0125A4E7384A45486B
:100BAC00136801331360F2E70499B1F5007F1BD190
:100BBC00236841480133236009F046FC274809F0BB
:100BCC0043FC002DA0D0DDE90301A0FB01010023B3
:100BDC003A4A050D45EA0135FFF74AFC2A4601461B
:100BEC00374809F031FC8FE7254A36481368013342
:100BFC001360E1E7224934480B6801330B60254947
:100C0C0009F022FC154809F01FFC304809F01CFCC7
:100C1C001B4D2F4809F018FC2A6821682D4809F053
:100C2C0013FC2B68002B40F087822368002B40F3C9
:100C3C008382294809F008FC094809F005FC274C77
:100C4C00002127480CF0E6FB2378002B00F076827D
:100C5C002146244809F0F8FBF2E700BF8CFA0000AB
:100C6C000EF900004BF2000073F200007BF3000061
:100C7C007EF30000C4070020A7F30000D4F30000AB
:100C8C00C007002007F4000058F40000DBF400005B
:100C9C00F00000202EF00000FDF40000FFF5000035
:100CAC00A7F20000D6F2000029F3000060F3000068
:100CBC0022F400003DF4000072F4000040420F00EA
:100CCC00B2F4000092F4000019F5000035F50000B4
:100CDC000DF9000048F900006EF9000022300020E8
:100CEC00366E0100D0F90000DDE90565A5FB06852F
:100CFC0007980023A0FB06764D4A29464046FFF78D
:100D0C00B7FB01464B4809F09FFB0023484A384685
:100D1C003146FFF7ADFB0146474809F095FB58EA11
:100D2C0005057FD0236845480133236009F08CFB0F
:100D3C00434809F089FBFFF72DFDFFF767FD41489C
:100D4C0009F082FB002352223F4904A8CDE9043369
:100D5C008DF8183002F0B0F9002840F08980236833
:100D6C00394901333948236009F06EFB344809F0E6
:100D7C006BFB3749832204A802F07EFA83280146D4
:100D8C0040F06281236833480133236009F05CFB37
:100D9C002B4809F059FB04A802F028FA0023012281
:100DAC00294904A8CDE904338DF8183002F084F9F0
:100DBC000546002840F04E8123682349013326481C
:100DCC00236009F041FB1E4809F03EFB29464FF415
:100DDC00805222480CF05BFE4FF480521F4904A84D
:100DEC0002F028FA054604A802F000FA832D40F020
:100DFC0038812368294601331948236009F024FB04
:100E0C000F4809F021FB2A46114914480CF047FE03
:100E1C00002840F03181236812480133236009F027
:100E2C0013FB2DE0104A11481368013313607DE762
:100E3C0040420F0069F5000086F50000A3F50000A4
:100E4C008CFA000019F6000086F100004CF6000048
:100E5C00A90C010082F60000B2F60000221000205E
:100E6C00EAF6000022F70000C0070020D1F50000D0
:100E7C00B44AB5491368B5480133136009F0E4FA74
:100E8C00B34809F0E1FA8021B24809F0DDFA0023F9
:100E9C005222B14904A8CDE904338DF8183002F080
:100EAC000BF90546002840F0ED802368AA49013370
:100EBC00AA48236009F0C8FAA54809F0C5FA09F058
:100ECC0014FA80468A460022A549C2EB421303EB72
:100EDC00D2030132B2F5805F01F8013BF5D1A04994
:100EEC0004A802F0C9F9B0F5805F00F0D980954AEA
:100EFC00294613689B480133136009F0A5FA9448FE
:100F0C0009F0A2FA4FF0000904A802F0D7F909F091
:100F1C00ECF9064604A80F4602F068F9B9F1000F87
:100F2C0025D0B6EB080667EB0A07012E77F1000314
:100F3C00C0F2BF804FF47A70A5FB0001800A40EA32
:100F4C00815032463B460021FFF792FAB5F5003F3F
:100F5C0040F0B180236832460133236029463B467A
:100F6C000090814809F070FA794809F06DFA002375
:100F7C000122794904A8CDE904338DF8183002F028
:100F8C009BF80546002840F0A08023687249013385
:100F9C007648236009F058FA6D4809F055FA09F0C3
:100FAC00A4F92E4682468B464FF48052704904A811
:100FBC0002F040F9B0F5805F00F08E80614A314656
:100FCC0013686C480133136009F03EFA604809F06D
:100FDC003BFA4FF0000909F088F9074604A8884647
:100FEC0002F004F9B9F1000F57D0B7EB0A0768EB20
:100FFC000B08012F78F10003C0F289804FF47A704E
:10100C00A6FB0001800A40EA81503A464346002183
:10101C00FFF72EFAB6F5003FDFF8289179D1236857
:10102C003A4601332360314643460090524809F05A
:10103C000BFA474809F008FA002D75D12368802176
:10104C0001334E48236023E03E4A4D481368013378
:10105C0013609BE63B4A3C4913684A4801331360D2
:10106C000CE7384A4848136829460133136009F0E5
:10107C00EBF9374809F0E8F9324A44481368013370
:10108C001360CCE62F4A344913683048013313609F
:10109C0009F0DAF92E4809F0D7F9FFF729FCB7E582
:1010AC0005F58055B5F5003F7FF40DAF4FF0010904
:1010BC002AE700204AE7234A2946136801331360C4
:1010CC00009032463B4632484CE71E4A2249136890
:1010DC002C4801331360DBE700222149C2EB421399
:1010EC0003EBD2030132B2F5805F01F8013BF5D17D
:1010FC001B491F480CF0D3FC06F58056002818BF7E
:10110C0045F00105B6F5003F7FF44EAF63E70020D4
:10111C0080E7D9F800303A460133C9F8003031463F
:10112C00009043461B4882E7D9F8003080210133F8
:10113C001948C9F80030ABE718487BE5184809F0A6
:10114C0083F97DE5C007002086F1000067F60000FA
:10115C008CFA000070F70000BCF100004CF60000A7
:10116C0022200020A8F70000CBF70000B2F6000008
:10117C00221000202BF800004DF80000ABF8000006
:10118C009AF60000CEF6000006F7000049F70000C2
:10119C00FBF700007CF80000DCF800009FF9000071
:1011AC0000FA00002DE9F04F91B0009302F0040317
:1011BC000293C2F3C2030133840705460E46DDF8E1
:1011CC0068A00392059340F09C81041D002849D12E
:1011DC0001F00706341DC6F10806009B00274FF0EE
:1011EC0004085A1E4FF0FF33B9460193BB464346E1
:1011FC0004970DB1009921600598002800F3D68062
:10120C008F480099814203D38E488142C0F0CE8032
:10121C000399601B11F0020C40F0D680B9F10F0F4E
:10122C0000F2CF80002D00F0D68009F140010DEBCB
:10123C00010E0199C0F387000EF8200C0EF8101C5B
:10124C00BCF1000F00F0C38060F07F000EF8200CA2
:10125C00013709F10109C5F108014FF6DA7E0434B2
:10126C0006918CE00729B8D86FF01B0011B0BDE8CF
:10127C00F08F7A285BD84B280FD8472857D82928C5
:10128C002ED8252850D052D8202818BF23280CBF80
:10129C004FF0010B4FF0000B71E04C382E2846D864
:1012AC00DFE800F06D454545454545454545454517
:1012BC004845454545454545455645484856565685
:1012CC006D486A456D4518481845457F7C4845452D
:1012DC0048457C0000204FF0000B4FF0040835E02F
:1012EC0001212A38C0B201FA00F010EA0E0F46D1E3
:1012FC0010F0625C2CD110EA010B40D06046013C2E
:10130C004444B4FBF8F408FB04F425B1A3EB050C3E
:10131C00A444B445A8D8002870D00599013905918A
:10132C005AF8041B009164E70199013901914FF0BF
:10133C00000B24E012F8010C6C2834D1002012F8B8
:10134C00023C83466C2BC8D14FF008084346D6E7C5
:10135C000AF1070A2AF0070A073424F00704FAE80E
:10136C0002BC35B106982044B0423FF67DAFC4E9CB
:10137C0000BC4FF0000B08344FF00808434612F83D
:10138C00010F002853D0BBF1000F7FF472AF25285A
:10139C00F5D14FF0010B019B013301934FF0040881
:1013AC00ECE7584697E700208346A8E7039988079F
:1013BC007FF551AF4FF0010C601BB0F5007FFFF4CF
:1013CC002DAF6FF0150051E74FF0000CF5E70498C6
:1013DC00013004903DE7BCF1000F01D0013638E735
:1013EC000298023600287FF434AF0098CDE906321B
:1013FC00FFF76AF8DDE9063206442AE7042B08D128
:10140C000AF1040015B1DAF80010216082460434A8
:10141C00B5E70AF1070323F0070303F1080A1DB12E
:10142C00D3E90001C4E9000108230834A7E7631BD2
:10143C00B3F5806FC5D23DB9A6F10804E01815E7E5
:10144C000CDC0000F80F0100029A9B0828602B703E
:10145C009DF81030AAB1EB70AF702FB1002208A824
:10146C00C5F1010C91450ED14FF0000AC5F10103F5
:10147C000DF1200801930DF1300BD14512D1601BF9
:10148C00F4E66B70E8E710F8013B190608D50CEB95
:10149C00040EB64503F07F033FF6E6AE04F8013BBD
:1014AC000132DFE71FB198F90020002A17DB029BFD
:1014BC00D3B11AF80B2004F8012B0022019B181948
:1014CC001044B0423FF6D0AE98F80000009904F8F2
:1014DC00010B204603920CF0CDFA039A14440AF146
:1014EC00010A08F10108C8E798F8002055F82230E5
:1014FC000093029B009845F82230FEF7E5FF421C52
:10150C00DCE76FF00D00B1E6014B1860704700BFCF
:10151C001401002080B505460E461746984607F084
:10152C002DFB034601F072FA0446DFF81890424690
:10153C0049F8003039463046A84754F8090001F004
:10154C00FDF900BF080000002DE9F047058B0446AB
:10155C00280717460CD501290CBF45F0100545F09E
:10156C002005258387F31188BFF36F8FBDE8F087C3
:10157C00022905F0070540F09480204608F071FF21
:10158C00052864D801A353F820F000BF71150000A2
:10159C00AF1600005B1600001D1600003716000089
:1015AC004916000001F007035A1F012A1FD8002218
:1015BC0021F00701062BD4F8008089B2C4E900227F
:1015CC0009D1434603E0628B013262831B68002B16
:1015DC00F9D141F002012046218308F042FF4FF07F
:1015EC00000900286DD041F02001218369E0042B13
:1015FC000AD121F0070189B22046218308F031FF7E
:10160C0010B141F0200121834FF00008C14658E091
:10161C002369D3F80090238B23F0070343F00603D0
:10162C004FF00008238346464BE02369D3F804901F
:10163C00238B23F0070343F00403F1E72369D3F86A
:10164C000890238B23F0070343F00503E8E74FF0E2
:10165C000008C146E7E7012243F00803238387F320
:10166C001188BFF36F8F002A3BD1B8F1000F4AD11C
:10167C00B9F1000F02D020462C49C847EFF311876F
:10168C00202383F31288BFF36F8F238B23F008037F
:10169C009BB22383D9063FD523F01002228303F09B
:1016AC0007056669218B002EBFF67CAF0023994697
:1016BC00D4F8008021F00701C4E9003341F00101A6
:1016CC002183238B03F0070AAA4502D0A268002AC3
:1016DC00C1D1B8F1000F02D1B9F1000FDAD000225C
:1016EC00BAE7A1680029C0D00D680029BDD03346E7
:1016FC00524620464F68B8471DB12B6829461D46F7
:10170C00F3E72B46FAE74146334652462046D8F8D3
:10171C00008008F0D2FEA8E79A067FF523AF23F0ED
:10172C002002228303F0070527E700BFF3A4000083
:10173C002DE9F84F814632480F4608F062FF064605
:10174C0000284FD0BDE8F88F237B8BB12368DB6872
:10175C000BB120469847636883F806A023681B6981
:10176C00002B37D1636804222046196808F06AFF01
:10177C00013610345C45E7D3B9F1000FE2D04FF0DD
:10178C00010A002DDED0A94695FAA5F4B4FA84F42A
:10179C000AFA04F3260108EB04146FEA030B25EA9A
:1017AC000305237B63B158F806301B6913BB464411
:1017BC00736804222046196809EA0B0908F042FFF5
:1017CC00002DE1D127B140F2391000210BF022FE9F
:1017DC004D46D6E7204698470028C3D00AFA06F3B0
:1017EC001D43C5E7074C0546A0464FF0010ADFF83C
:1017FC0018B0BFE7204698470028E1D1D7E700BFD3
:10180C00040A002084E8000094E80000014B53F81F
:10181C0020007047D8E8000008B5034608462BB1F5
:10182C00044A136000F048FA002008BD6FF0150060
:10183C00FBE700BF1801002000230C4A10B5137001
:10184C000B4A0C4913600C4A0C481360FFF7E4FF79
:10185C000B4B0C4918468B4200D310BD1A1A5C680E
:10186C001211013222711033F5E700BF5230002003
:10187C00FC09002040420F00000A00200BA60000CB
:10188C0084E8000094E8000070B50B4D297841B94C
:10189C000120FFF74DFF094C094EB44202D301233E
:1018AC002B7070BD63685B791BB1236820469B6805
:1018BC0098471034F1E700BF5230002084E8000054
:1018CC0094E8000010B50446064808F09AFE3CB1B6
:1018DC00054BD3E8EF1F0139C3E8E21F002AF8D10A
:1018EC0010BD00BFFC090020000A002070B50A4B97
:1018FC0005461B689847094C094EA860B44200D3B2
:10190C0070BD63685B7923B12368294620461B6848
:10191C0098471034F2E700BF1801002084E800005B
:10192C0094E80000044A054B9B1AB1EBD30F34BF6B
:10193C0052F8310000207047D4E7000084E8000022
:10194C002DE9F04F87B004AF0546D7E90EBA8846AB
:10195C00144699463E6BBBF1000F1ED0C7F804A08D
:10196C00CDF800A010215B4600207A6BFFF71AFC23
:10197C00B0F5006F014612D340F2FF7303931A4B7C
:10198C0002220293002319491846CDE9003308F0CE
:10199C007BFE0C37BD46BDE8F08F5946584604F027
:1019AC00070205F00704E40044EA821444EA4024E8
:1019BC0044EA065417360E4426F00706ADEB060D26
:1019CC0004ADBBF1000F07D0CDF800A05B467A6BDD
:1019DC0005F11000FFF7E6FB4B4622464146284630
:1019EC0008F039FED5E700BF53FA00000CE8000000
:1019FC00406820B1034BC01A40F3CF0070474FF042
:101A0C00FF307047D4E700000EB403B503AB53F8B6
:101A1C00042B01460448019301F03AFA02B05DF838
:101A2C0004EB03B0704700BFD1A60000CA0605D472
:101A3C008B064CBF02490349FFF7E6BF704700BF56
:101A4C008CFA00008BFA00002DE9F04F87B09DF85E
:101A5C00489004460D469846DDF850A0169F049217
:101A6C00B9F1000F00F0B08007F48073059308F013
:101A7C00E7FD07F0020B0246002874D020467A4995
:101A8C00FFF7C2FF0646BBF1000F08D017F0440F5A
:101A9C006BD12A4620467549FFF7B6FF064407F07E
:101AAC00010353B1724B204653F82920714B7249F4
:101ABC00002A08BF1A46FFF7A7FF07F48073002B14
:101ACC0007F0080318BF4FF00008002B79D06B4BC0
:101ADC00204653F829206A49FFF796FF0546049BD8
:101AEC002BB11A4620466749FFF78EFF0544B8F123
:101AFC00000F05D0424620466349FFF785FF054499
:101B0C0062483544139B1BB12246614908F069FCBD
:101B1C00159B002B00F08D80DDF854803946B8F110
:101B2C00100F204628BF4FF010080026FFF77EFF4D
:101B3C00B5424FDC0026334620461AF8032055499F
:101B4C00FFF762FF0136102E4AD0710703D12046F1
:101B5C005149FFF759FFB0453346EDD820464F4960
:101B6C00FFF752FFEEE706468DE74D4B186800284D
:101B7C0094D04C4B4FF47A7B1B684FF03C0CB5FB6C
:101B8C00F3F5B5FBF0F14FF4616300FB11550BFB62
:101B9C0005F5B1FBF3F2B5FBF0FE03FB121100FBF4
:101BAC001E55B1FBFCF30BFB05F5B5FBF0F50CFB7F
:101BBC00131120460091CDE901E53B49FFF724FFC5
:101BCC006CE707F008058AE7012B4D460CBF2F4840
:101BDC00364897E720463049FFF716FF0136A7E74E
:101BEC00002620463249FFF70FFF33461AF8032030
:101BFC002046A2F120035F2B28BF2E222D49FFF790
:101C0C0003FF0136102E0DD0720703D12046224956
:101C1C00FFF7FAFEB0453346E8D820461E49FFF7D9
:101C2C00F3FEEEE7159BC244B3EB080315937FF468
:101C3C0073AFB9F1000F0AD0FB0704D520460D4A4B
:101C4C000D49FFF7E1FE39462046FFF7EFFE6268CB
:101C5C00A168D2E90023206808F026FD0022636801
:101C6C001A6007B0BDE8F08F93FA000097FA0000F5
:101C7C00E8E800008EFA0000F9F00000FCE8000033
:101C8C00BCFA0000C2FA0000C6FA0000D1A600009F
:101C9C009D2E0000CBFA0000B90B0100B70B010020
:101CAC000C0A0020080A0020A0FA0000EDA6000093
:101CBC00D1FA0000D3FA000000210123064A904219
:101CCC0006D8064A01B901231360054B186070470A
:101CDC00012140085B00F2E740420F00080A002097
:101CEC000C0A00202DE9F34143680DF107011C6833
:101CFC001048656808F053FD30B99DF807100129AC
:101D0C0002D10C4800F030F801232B7525682F68A0
:101D1C00D5E90136D3E9004824B96B681C6002B0E0
:101D2C00BDE8F081214630464246B847241A0644A5
:101D3C00F2E700BF9CDD0000F8B50D460446064FE7
:101D4C004618B44201D12846F8BD14F8011BBB68F3
:101D5C0001485B689847F4E79CDD0000014B036089
:101D6C000020704744E9000070B5C4690D469CB36F
:101D7C001E4A2379565CB34231D01D4A525C9A42BA
:101D8C0030D1A3689847002810DA022D0CD0032D0F
:101D9C000BD110F1860F07D0D4E8EF3F43F00203CC
:101DAC00C4E8E23F002AF6E7267170BD022D2671C9
:101DBC0001D00020F9E7D4E8EF3F23F00403C4E896
:101DCC00E23F002AF7D1D4E8EF3F23F00203C4E846
:101DDC00E23F002AEDD0F6E76FF05700E5E76FF031
:101DEC007700E2E76FF08500DFE700BF310D0100FF
:101DFC002D0D01002DE9F8430646FEF765FB05465F
:101E0C00EFF31188202383F31288BFF36F8F114BEC
:101E1C001C68D3F804909C4208BF002434B988F3A2
:101E2C001188BFF36F8F2046BDE8F883A76838464A
:101E3C00FEF74AFBA84206D12A46394630460BF03B
:101E4C004BFE0028EBD04C4501D02468E6E700247B
:101E5C00E5E700BF24010020F0B585B00E4615461D
:101E6C00FFF7C8FF044658B3C3684BB35F693FB371
:101E7C00062E08D0072E26D02A4631463B4605B002
:101E8C00BDE8F0401847838A3BB92A463146B8472B
:101E9C0050B9A38A0133A38206E04FF6FF72934236
:101EAC0004D00133A382002005B0F0BD154B0122F4
:101EBC0002930023CDE900331846134908F0A7FC20
:101ECC006FF01500F0E745B12A7832B1002282821A
:101EDC0031462A465B699847E5E7A38A012B08D16E
:101EEC002A4607212046B8470028DDD1A38A013BAA
:101EFC00D1E70BB1013BD5E7044A0093CDE90132A0
:101F0C000222D9E72BFB0000F4E700004DFB000098
:101F1C001FB5044608B1806868B9134B02930023BF
:101F2C0001221846CDE90033104908F070FC6FF01F
:101F3C00150004B010BDFFF75DFF08B10C4BEDE7C9
:101F4C00A082EFF31181202383F31288BFF36F8FEC
:101F5C00084B5A68C4E9003214605C6081F3118844
:101F6C00BFF36F8FE5E700BF6BFB0000F4E70000E9
:101F7C0084FB00002401002008B5044808F064FA32
:101F8C00034808F061FA002008BD00BFADFB00005B
:101F9C00E2FB000008B50348034A0021121A08F0BE
:101FAC0081FC08BD980400205C300020074808B56F
:101FBC00074A0849121A08F077FCBDE808400648A1
:101FCC00064A0749121A08F06FBC00BF60000020D7
:101FDC0098040020F80F0100600000206000002031
:101FEC00F80F010070B506460D4686B0002938D0B2
:101FFC0000248B68012205934B68204604930B68E0
:10200C0023490393234BCDE900440293234608F064
:10201C004DFC6B69012205932B6920460493EB68F8
:10202C001B4903931C4B0094CDE90143234608F054
:10203C003DFCEB6901220393184B2046CDE901438B
:10204C0013492346009408F031FCAB690122039339
:10205C00134B2046CDE901430D492346009408F06B
:10206C0025FC012E0DD1EFF30583103B03930D4B93
:10207C0032460293002306491846CDE9003308F096
:10208C0015FC2946304606B0BDE8704006F022B873
:10209C002CE800000FFC00003EFC00006DFC000072
:1020AC007CFC0000AAFC000030BFFFF7FDBF00BFA6
:1020BC002DE9F04105460B4EDFF82C80324606EB3D
:1020CC000807CC1B204609490BF0D4FCA01942464A
:1020DC000021083C0BF0DBFCAC6707F10800BDE805
:1020EC00F08100BF000000000400000094E8000034
:1020FC001FB500243E4B3F49029301222346204644
:10210C00CDE9004408F0EDFB3B4B9B6A99016DD582
:10211C003A4B2046CDE90143012223463549009430
:10212C0008F0DFFB1E20344B9B6ADA010AD5344BD6
:10213C000122029300232F491846CDE9003308F001
:10214C00D0FB1F202C4B9B6ADB020AD52D4B0122A6
:10215C000293002327491846CDE9003308F0C1FB50
:10216C000220254B9B6A1C030AD5274B01220293A4
:10217C00002320491846CDE9003308F0B2FB21209A
:10218C001D4B9B6A59030AD5204B01220293002355
:10219C0018491846CDE9003308F0A3FB2220164B52
:1021AC009B6A9A030AD51A4B012202930023114908
:1021BC001846CDE9003308F094FB23200E4B9B6AA4
:1021CC00DB030AD5134B012202930023094918465D
:1021DC00CDE9003308F085FB2420074A936A6FEAA7
:1021EC0003436FEA1343936204B010BD1D209AE7BA
:1021FC00BDFC00002CE8000000ED00E0D5FC000068
:10220C00E8FC000002FD00002CFD00004AFD00006F
:10221C006FFD000089FD0000F0B50024434B85B034
:10222C000293074623460E4601222046CDE9004480
:10223C003F4908F056FB3F4B9B6ADB0465D53E4B90
:10224C002046CDE90143012223463949009408F088
:10225C0048FB1720374B9B6A1D050AD5374B0122CB
:10226C000293002332491846CDE9003308F039FBBC
:10227C001820304DAB6A9C051FD50024304B012231
:10228C0020460293CDE900442346294908F029FB56
:10229C00AB6BAA6A10040FD503932A4B0122CDE92C
:1022AC000143204623462249009408F01AFB1FB133
:1022BC00AB6A23F40043AB6219201E4B9B6A590591
:1022CC000AD5214B01220293002319491846CDE966
:1022DC00003308F006FB1A20164A936A13F4807335
:1022EC0015D01A4B01220293002311491846CDE94F
:1022FC00003308F0F6FA1B200E4A936A43F47F432E
:10230C0093620023337005B0F0BD1620A2E7926AE9
:10231C009204F1D50E4A1846CDE901320449012246
:10232C00009308F0DEFA1C20E6E700BFB4FD0000C5
:10233C002CE8000000ED00E0CAFD0000DBFD000011
:10234C00EEFD000007FE00001CFE000037FE000042
:10235C004FFE0000F0B50024414B85B002930746B8
:10236C0023460E4601222046CDE900443D4908F0A3
:10237C00B8FA3D4B9B6ADD066FD53C4B2046CDE948
:10238C000143012223463749009408F0AAFA112090
:10239C00354B9B6A1C070AD5354B0122029300234F
:1023AC0030491846CDE9003308F09BFA12202E4D27
:1023BC00AB6A99071FD500242E4B012202932046AD
:1023CC002346CDE90044274908F08BFA6B6BAA6AC7
:1023DC0012060FD50393284B0122CDE90143204669
:1023EC0023462049009408F07CFA1FB1AB6A23F015
:1023FC008003AB6213201C4B9B6ADD070AD51F4B75
:10240C0001220293002317491846CDE9003308F046
:10241C0068FA1420144B9B6A9C060AD5184B0122AF
:10242C00029300230F491846CDE9003308F059FAFE
:10243C0015200D4B9A6AD10658BF9A6A9A6A920671
:10244C0042BF5A6A22F400525A629A6A42F0FF0260
:10245C009A620023337005B0F0BD102098E700BFDE
:10246C007EFE00002CE8000000ED00E094FE000071
:10247C00DBFD0000C7FE0000DFFE0000F5FE0000E3
:10248C004FFE00002DE9F041794B0446D3F804804F
:10249C0090B00023C8F3080683F31188BFF36F8F45
:1024AC0002F07F40B0F17F4F0CD102F00C000828F5
:1024BC0018D1704A1846CDE901326F4901220093B8
:1024CC0008F00FFA00252C460027F31E8DF81F701C
:1024DC00092B00F2B580DFE803F00BA9ADA5B3B36F
:1024EC00B3B3B3B1120746BF0C461D460125EBE74B
:1024FC00624B0122CDE9017300235F491846DFF8D6
:10250C007081009708F0EDF98DF81F70D8F82C60E9
:10251C0016F0020604D05A4BCDE90173009707E080
:10252C00D8F82C30002B0BDA564B0096CDE9016312
:10253C00002301221846504908F0D3F9002239E053
:10254C00D8F82C305B00F9D54F4B0122CDE9016353
:10255C00304633464849009608F0C3F9D8F8143091
:10256C00A26943F48073C8F81430BFF34F8FBFF3E4
:10257C006F8F32F8023CD8F8142022F48072C8F81D
:10258C001420BFF34F8FBFF36F8F03F47F42B2F56C
:10259C005F4F2FD1DBB2022B2CD123680122039386
:1025AC003A4B3046CDE9016333493346009608F087
:1025BC0098F922689DF81F30CBB908AE04F12007BA
:1025CC00334620686168083403C3BC421E46F7D109
:1025DC000F9B002D48D0C3F3080121B96FEA532398
:1025EC006FEA43230F93104608A9FFF7FBFC10B0CA
:1025FC00BDE8F0811E4B9A6AD2B22AB101200DF1CE
:10260C001F01FFF7A7FE0FE09A6A12F47F4F05D067
:10261C0001200DF11F01FFF7FFFD05E09B6AB3F5EB
:10262C00803F8BD3FFF764FD0246C3E700200DF11A
:10263C001F01E6E700200DF11F01ECE7144B6BE7DF
:10264C00144A18F4F87F144B08BF1346103ECDE91A
:10265C000336124B01220293002307491846CDE999
:10266C00003308F03EF969E76FF30803BAE700BFDF
:10267C0000ED00E042FF00002CE800006DFF0000C0
:10268C0084FF0000A5FF0000B3FF0000D2FF000094
:10269C00EEFF000014FF000029FF000012000100F3
:1026AC00064B5A6942F010025A615A6942F4806230
:1026BC005A615A6922F008025A61704700ED00E035
:1026CC00EFF30880EFF3098101B57246FFF7DAFEEC
:1026DC0001BD00BF002080F31488BFF36F8F002072
:1026EC0080F30A8880F30B880F4880F3088804F085
:1026FC006BFE00200D490860BFF34F8F00F02CF8E3
:10270C00202080F311880A484FF40061401880F3B0
:10271C000988EFF314800221084380F31488BFF377
:10272C006F8F00F0A5F8000060D5002094ED00E05C
:10273C0060300020002318460649D1F89020C2F3DF
:10274C000722934200DB7047C1F89830C1F8A00013
:10275C000133F6E700ED00E010B572B6002484F307
:10276C001388FFF7E7FF23464FF0FF300C4A03F1C5
:10277C0020010133102B42F82100F8D100234FF037
:10278C00FF30074A03F160010133102B42F821009E
:10279C00F8D162B6BFF34F8FBFF36F8F10BD00BF80
:1027AC0000E100E01EF0040F0CBFEFF30880EFF324
:1027BC000980816911F8021C0229FFD001B572460B
:1027CC0008F084F801BD00BF00B2002807DB01232C
:1027DC004109034A00F01F00834042F82130704742
:1027EC0000E100E000B200280CDB0122064943099D
:1027FC0000F01F008240203341F82320BFF34F8F9D
:10280C00BFF36F8F704700BF00E100E0054B42093A
:10281C0053F82220012300F01F0003FA00F01040AF
:10282C00704700BF00E100E000B2002801F1010197
:10283C00ACBF00F16040064B4FEA4111C9B2ABBFCF
:10284C0000F5614000F00F0080F800131954704738
:10285C0014ED00E0044B054A23F07F039360BFF3B3
:10286C004F8FBFF36F8F70470000000000ED00E04A
:10287C0008B5FFF7EFFF074AD2F8883023F470034E
:10288C00C2F88830FFF786FBFFF790FB00F09CF84E
:10289C0005F032FD00ED00E042F8203C009B0B49B6
:1028AC0042F81C3C019B21F0010142F8183C029BB0
:1028BC0042F8081C42F8143C4FF0807342F8043C78
:1028CC000023203A0265C367704700BF2115000042
:1028DC0000B50D4B15469860826F0C4B0E461A6076
:1028EC00836E83F30B882C4686F309880020044BF7
:1028FC0098472046002100220023024C204700006C
:10290C0025A9000021150000780C0020340A0020B5
:10291C001022014B1A61704700ED00E0054B5A691B
:10292C009B689A421FBF044A536843F0805353601C
:10293C00704700BF780C002000ED00E0084B9B684E
:10294C0083420BD1EFF3058343B1064B5A6842F037
:10295C0080525A605A6A22F400425A6206F014B944
:10296C00780C002000ED00E014498A684FF030002C
:10297C001044EFF3098C80E8F01F202080F31288BC
:10298C00BFF36F8F0E4F4FF000664A698A603E604E
:10299C00906F0C4C2060D06F0023D36780F31188AC
:1029AC0002F1300090E8F01F8CF3098802F100006E
:1029BC0004B507F0AAFFBDE804407047780C00206E
:1029CC0004ED00E0340A00200023202040F20F1216
:1029DC0010B5044CE1180133934281F80003F9D18E
:1029EC0010BD00BF00E100E008B5EFF30583064A17
:1029FC00103B02EBC30152F8330049688847BDE82D
:102A0C000840FFF78BBF00BF9CDE00000148006848
:102A1C0070470000340A00201FB50121094B0A4AF7
:102A2C000A4800F01DF90023064A0393084B0121C4
:102A3C00019301A8D31A029300F01CF905B05DF8BC
:102A4C0004FB00BF000004200000002044E900004B
:102A5C00980400200A7A0B6810B562F304031C4634
:102A6C00CB68520923F01F0343EA4203044A43F0A4
:102A7C000103C2F89800C2F89C40C2F8A03010BD07
:102A8C0000ED00E01FB50E4B0446D3F89030C3F3B5
:102A9C000723013B98420FD90A4B03900293002362
:102AAC0001221846CDE90033074907F061FF6FF0AA
:102ABC001504204604B010BDFFF7CCFFF9E700BFAA
:102ACC0000ED00E02900010024E800002DE9F04FA2
:102ADC008946144606464FF00008524D89B0C84549
:102AEC002DDAD6F804A0BAF1000F4AD0BAF11F0FB4
:102AFC0017D91AF01F0F14D1D6F800B01BF01F0F06
:102B0C000FD1584607F02BFF07460AEB0B00013894
:102B1C0007F025FF874216D06FF01507424B03973D
:102B2C0002E0424BCDF80C800293002301221846A0
:102B3C00CDE900333E4907F01BFF6FF0150420462A
:102B4C0009B0BDE8F08F17F1160FE7D0BC42E5DDF8
:102B5C00C5F89870D5F89C10C5F89870D5F8A030C9
:102B6C0021F01F0143F01F0BD6E900321A449942A1
:102B7C0002F1FF3A1AD1D34507D13146F8B207F02A
:102B8C0007FF08F101080C36A9E73146C5F8987023
:102B9C00D5F89C30E0B263F30402C5F89C2007F032
:102BAC00F7FE10F1160FC8D0441CEAE7C5F8987070
:102BBC00D5F8A020013B23F01F0302F01F021343A2
:102BCC00D3453146E0B2C5F8A030E8D007F0E0FEBE
:102BDC0010F1160FB1D0C5F89870D5F89C209DF85F
:102BEC0018300BF1FF3B62F304038DF81830D5F865
:102BFC00A0309DF818205B0863F347128DF818205D
:102C0C00D6E900321344049323F01F035B44A3EB77
:102C1C000A03013023F01F0304A9C0B20793FFF786
:102C2C0031FFBEE700ED00E0750001004F00010030
:102C3C0024E800000522044BC3F89420BFF34F8F07
:102C4C00BFF36F8F704700BF00ED00E0BFF35F8FE5
:102C5C000022024BC3F89420704700BF00ED00E047
:102C6C0010B5034C2278FFF731FF207010BD00BF68
:102C7C00543000202DE9F74F294D8A4606464FF077
:102C8C000008AB46274FD0451BDAD6F80490B9F1B3
:102C9C00000F3FD031680846019107F060FE0199A2
:102CAC00044609EB0100013807F059FE84424FF04D
:102CBC0014021D4B08D002FB08F36FF015024BF801
:102CCC00032003B0BDE8F08F14F1160F2C60F8D080
:102CDC001978A142F5DD02FB08B0C7F89840C7F897
:102CEC009840D7F89C4000F10801007B64F3040085
:102CFC000871D7F8A0000C79400860F347140C71E8
:102D0C00D7F89C1021F01F016960D7F8A01021F0B2
:102D1C001F01296108F1010814350C36B3E700BF17
:102D2C00380A002000ED00E054300020F0B5534983
:102D3C00534DD1F890302C68C3F307239C4287B0D5
:102D4C0000F299800020FFF781FF4E4BC1F8C03094
:102D5C00844216D14C4D01A82C70FEF7FFFF0026C3
:102D6C0007464A4CB74213D100202B784349D1F87F
:102D7C009020C2F30722934277DBFFF75BFF002022
:102D8C0046E0696801EB0011FFF764FE0130DFE7F4
:102D9C000199300101EB0613DA682240B2F1807F11
:102DAC0052D00AD8B2F5001F34D0B2F5800F3ED005
:102DBC00B2F5801F12D00136D4E7B2F1006F43D0C8
:102DCC00B2F1805FF7D15A689B680958013B22F039
:102DDC001F00034423F01F03012032E05A689B6854
:102DEC000958013B22F01F0003440120844623F0C4
:102DFC001F0340EA4C10CDE902218DF8100002A906
:102E0C0028780593FFF73EFE00282ADA6FF01500AC
:102E1C0007B0F0BD5A689B680958013B22F01F00AF
:102E2C0003444FF0020C012023F01F03E1E75A6822
:102E3C009B680958013B22F01F000344062023F035
:102E4C001F034FF0000CD4E75A689B680958013BEC
:102E5C0022F01F0003444FF0030C012023F01F034A
:102E6C00C7E72B7801332B70A5E7C1F89830C1F870
:102E7C00A00001337BE74FF0FF30C9E700ED00E025
:102E8C0050E90000AAFF4400543000200000F0FF7D
:102E9C00F0B587B007460E4614460021102268464E
:102EAC001D460AF0F4FD02238DF80230054B2A462C
:102EBC0021466846CDE90476019306F0D3FF07B0AE
:102ECC00F0BD00BFCFA9000008B5024B1B689847A6
:102EDC00002008BD4C0A0020034B044A186093786C
:102EEC0043F00203937070474C0A00202C01002021
:102EFC0008B50649064821F00701C1F1005202F558
:102F0C00802207F02DFA002008BD00BF1317012006
:102F1C00500A002008B5244A244B1A6001F0D6FC54
:102F2C004FF47A612248D0F82436C3F30802C3F375
:102F3C0009434B4382F480721E49883201FB0233F1
:102F4C004FF4FA215B00B3FBF1F201FB12331A4987
:102F5C00B3F57A3F28BF0132C1F80429D0F82036E6
:102F6C004FF47A60C3F30802C3F30943434342F6B8
:102F7C00041082F4807202F2172200FB02334FF429
:102F8C007A701B0AB3FBF0F200FB12330020B3F58E
:102F9C00FA7F4FF0010328BF0132C1F81C27C1F89A
:102FAC000009C1F8003608BD0020A1076403002009
:102FBC0000C0FF00102700800000125048B1054BE4
:102FCC00054A1B68B3FBF2F35843044B43F001036F
:102FDC00184770476403002040420F00C0E800000F
:102FEC00084B0246596811B11968884207D0D86855
:102FFC0030B1996804488A4218BF002070471846BF
:10300C00704700BF5C0A0020640A002002460B4691
:10301C00014805F01BBA00BF6C040020014805F004
:10302C0087BA00BF6C0400202DE9F74F4FF0000960
:10303C00824608460F469046FDF746FA4E468346B2
:10304C004FF0FF314FF0FF30FFF7E0FF194B1C68DA
:10305C009C4208BF00245B685CB9FFF7DFFF36B306
:10306C00CAF80060B8F1000F1DD1002003B0BDE814
:10307C00F08FA569A94512D8AB4510D3012D03D902
:10308C007A5D2F2A00D052B92A463846E16801935E
:10309C000AF022FD002804BFA9462646019B9C424B
:1030AC00DBD02468D8E7B369C8F80030DDE76FF0EF
:1030BC000100DBE72C0200202DE9F0430546174602
:1030CC00894687B021B10B782F2B01D14B787BB976
:1030DC003F4B0122029300233E491846CDE90033B1
:1030EC0007F07AFC6FF01504204607B0BDE8F083BA
:1030FC004468002C66D1224605A8FFF795FF60B105
:10310C00354B2046CDE90143009423460122314939
:10311C0007F062FC6FF00104E6E7DDF8148098F824
:10312C0020309B0702D517F0120F4ED1D8F81C2077
:10313C001368E3B117F040061DD017F002030BD152
:10314C00264A1846CDE9013222490122009307F0A4
:10315C0043FC6FF00C04C7E753695BB9204A18466F
:10316C00CDE901321B490122009307F035FC6FF0C9
:10317C008504B9E70126C5F80480D8F81C303A4616
:10318C00494628461B689847041E0DDA154B0394D4
:10319C0000260293012233463046CDE900660D49E4
:1031AC0007F01AFC6E609FE72F72002E9CD0D8F8A7
:1031BC001C30002128465B699847041E94DA0A4BA0
:1031CC000394E5E76FF00F048EE76FF01D048BE7B7
:1031DC00AB000100FCE70000BF000100D7000100BC
:1031EC0005010100250101003A01010030B54468D8
:1031FC00054685B08CB1E369DB699BB19847041E29
:10320C004FF000030CDA094A1846CDE9013208499F
:10321C0001220394009307F0DFFB204605B030BD7C
:10322C006B60FAE76FF08504F7E700BF5601010009
:10323C00FCE700001FB543689BB1DB695B689BB181
:10324C009847041E0ADA0A4B01220293002309490B
:10325C001846CDE90033039407F0BEFB204604B0BA
:10326C0010BD6FF00804F9E76FF08504F6E700BFB6
:10327C006C010100FCE700001FB543689BB1DB69E2
:10328C009B689BB19847041E0ADA0A4B01220293F1
:10329C00002309491846CDE90033039407F09CFB41
:1032AC00204604B010BD6FF00804F9E76FF08504F8
:1032BC00F6E700BF81010100FCE700001FB5436881
:1032CC009BB1DB699B699BB19847041E0ADA0A4BD8
:1032DC0001220293002309491846CDE900330394D7
:1032EC0007F07AFB204604B010BD6FF00804F9E734
:1032FC006FF08504F6E700BF97010100FCE70000C2
:10330C002DE9F04105460F4686B011B10B782F2BF5
:10331C000FD0314B01220293002330491846CDE9DE
:10332C00003307F059FB6FF01504204606B0BDE8DA
:10333C00F0814368002B49D1D0F80080B8F1000F20
:10334C0044D138462649FDF7ADF8044678B94FF01C
:10335C00FF304FF0FF31FFF759FE224A6C601368C3
:10336C00934208BF00232B60FFF758FEDDE742466F
:10337C00394605A8FFF758FE064668B11A4B0122DC
:10338C00CDE90183404643461449CDF8008007F04F
:10339C0023FB6FF00104C8E7059BDA69126AC2B11E
:1033AC006B60DB69394628461B6A9847041EBCDAF9
:1033BC000E4BC5E900660122CDE901633046334668
:1033CC0006490394009607F007FBAEE76FF00F0475
:1033DC00ABE76FF08504A8E7AC010100FCE7000047
:1033EC00C4FA00002C020020BF000100C50101003E
:1033FC002DE9FF41476806460D46002F2DD0FB698D
:10340C005B6A002B64D04F1C73682946DB6930461D
:10341C005B6A9847041E14DB6B7873B12B78012B15
:10342C000BD138462C49FDF73DF80028ECD0384636
:10343C002A49FDF737F80028E6D0204604B0BDE84D
:10344C00F081274B01220293002326491846CDE92F
:10345C000033039407F0C0FAEFE7036813B94B701D
:10346C000024EAE7DFF880804FF0FF304FF0FF31A7
:10347C00FFF7CCFDD8F80040D8F80430444508BF1D
:10348C00002424B9FFF7CAFD6FF00104D5E73268B8
:10349C00A24219D10123284600F8013BA269E16838
:1034AC00FF2A28BFFF2219440AF0E4FA002385F80A
:1034BC000031C5F80431D8F804309C4218BF276895
:1034CC00FFF7ACFD3760CBE79C42DBD02468D8E734
:1034DC006FF08504B1E700BFE0010100DF010100DE
:1034EC00E2010100FCE700002C02002030B544682A
:1034FC00054685B01CB90460204605B030BDE369B3
:10350C009B6A93B19847041E4FF000030ADA084AED
:10351C001846CDE90132074901220394009307F0C4
:10352C005BFAE9E7C5E90033E6E76FF08504E3E70A
:10353C00FC010100FCE7000030B5044687B020B167
:10354C0003782F2B01D1437873B9204B01220293BE
:10355C0000231F491846CDE9003307F03DFA6FF000
:10356C001504204607B030BD0146002205A8FFF720
:10357C005BFD60B1174B01220293002314491846DE
:10358C00CDE9003307F028FA6FF00104E9E705985C
:10359C0090F8205015F0020512D1C3695B6B93B102
:1035AC0021469847041EDCDA0B4B0122CDE901536E
:1035BC0028462B4606490394009507F00DFAD0E7F0
:1035CC006FF01D04CDE76FF08504CAE7AB00010076
:1035DC00FCE70000BF00010017020100F0B50C462B
:1035EC00064687B010B103782F2B0ED0304B01223A
:1035FC00029300232F491846CDE9003307F0ECF96C
:10360C006FF01504204607B0F0BDFCF75DFF0128F4
:10361C00074608D142F6017323800023A370C4F837
:10362C0004310024EEE7314605AA04A8FFF7FCFCA0
:10363C00054660B1204B0122029300231D49184618
:10364C00CDE9003307F0C8F96FF00104DAE7DDE9E2
:10365C000432BF1A012F10D82046012200F8012B8A
:10366C009A69D968FF2A28BFFF2201310AF002FAB1
:10367C0084F80051C4F80451D3E7DA69176CA7B188
:10368C00224618463146B847831C0446DCD0002835
:10369C00B8DA0A4B0390CDE9015301222B46284698
:1036AC000449009507F098F9ACE76FF08504A9E799
:1036BC0032020100FCE70000BF0001004D020100D6
:1036CC0070B50E46044686B020B103782F2B01D17D
:1036DC00437873B91D4B0122029300231C491846F1
:1036EC00CDE9003307F078F96FF01504204606B0E9
:1036FC0070BD0146002205A8FFF796FC054660B197
:10370C00144B01220293002311491846CDE90033D2
:10371C0007F062F96FF00104E8E70598C3695B6C88
:10372C0083B1214632469847041EDFDA0A4B012248
:10373C00CDE9015328462B4605490394009507F023
:10374C004BF9D3E76FF08504D0E700BF32020100DC
:10375C00FCE70000BF0001004D0201002DE9FF4114
:10376C00044608B1C56865B9564B02930023012283
:10377C001846CDE90033544907F02EF96FF01505C2
:10378C000DE003687BB1514B0122029300234E499B
:10379C001846CDE9003307F01FF96FF00F052846E6
:1037AC0004B0BDE8F0812846FCF78EFE074610B148
:1037BC002B782F2B01D0464BD7E7464E4FF0FF30DE
:1037CC004FF0FF31FFF722FC3568D6F80480B54284
:1037DC0008BF0025B5B9A5682846FFF701FC20B144
:1037EC00D0F80480B8F1000F34D13B4B0122029386
:1037FC00002335491846CDE9003307F0EDF86FF09A
:10380C00010512E0AB69BB4220D122692B699A42B7
:10381C000ED12E4B0122029300231846CDE9003322
:10382C00294907F0D9F86FF00F05FFF7F7FBB6E75A
:10383C003A46E968E0680AF04FF9034630B9274A7E
:10384C002149CDE9010200900122EAE74545C2D0A9
:10385C002D68BFE7D8F82C3063B9214A0395CDE920
:10386C000132184601221849009307F0B5F86FF0A1
:10387C008505DAE7D8F8303053B9E2681846039278
:10388C00184A1149CDE901320093022207F0A4F83D
:10389C002046D8F82C309847051E0BDA124B012223
:1038AC000293002308491846CDE90033039507F02D
:1038BC0093F8BAE77368C4E90678C4E900631C603E
:1038CC007460B2E76E020100FCE700008C0201009C
:1038DC00AA0201002C020020DD020100C00201003E
:1038EC00090301002E0301004F03010030B504460B
:1038FC0085B000283FD04FF0FF304FF0FF31FFF77D
:10390C0085FB236883B91D4A1846CDE901321C4951
:10391C0001220394009307F05FF86FF01505FFF791
:10392C007DFB284605B030BDE3691B6B5BB9154ABE
:10393C001846CDE9013212490122009307F04CF8E8
:10394C006FF08505EBE720469847051E0BDA0E4B0A
:10395C000122029300230A491846CDE9003303954E
:10396C0007F03AF8DBE7D4E9003213605A60002321
:10397C00C4E90033D3E76FF01505D2E76303010008
:10398C00FCE700007D0301009803010038B50446F4
:10399C000D464FF0FF304FF0FF31FFF737FB20465D
:1039AC00FFF71EFB08B143687BB90B4B5A6812B189
:1039BC00DA686AB9012243F83240002403EBC203EF
:1039CC005D60FFF72BFB204638BD6FF07704F8E7FE
:1039DC006FF01B04F5E700BF5C0A00201328DABF68
:1039EC00024B18566FF00400704700BF3A0D0100EF
:1039FC0000200149FFF7CABF78E90000012230B569
:103A0C00C1680446ADF5057D0069114403F052F818
:103A1C000D2818D194F820309A0721D4DB0719D43B
:103A2C00124B0FCB8DE80F00E0684FF40073694622
:103A3C0004AA013003F062F860B90122E168206940
:103A4C00114403F037F828B994F8203043F00803F8
:103A5C0084F820300DF5057DBDE83040FFF7BEBF82
:103A6C006FF01D000DF5057D30BD00BFA0E8000016
:103A7C0038B50446006808F075FE05462168044810
:103A8C0009F000FC2846BDE83840FFF7A7BF00BF8F
:103A9C00E403002073B5002206460D4600231048AF
:103AAC0001A904F0A5FC0446B0B9014630220198E6
:103ABC0009F0EDFF0198691C306008F01CFE05460A
:103ACC0020B10199064809F0DDFB3460284602B0AC
:103ADC00BDE87040FFF782BF6FF00B0002B070BD05
:103AEC00E403002038B50446006808F06CFD21683A
:103AFC000546054809F0C6FB002323602846BDE8AF
:103B0C003840FFF76BBF00BF00040020F7B500235F
:103B1C0006460D4617461248002201A904F068FC1F
:103B2C000446C0B901462822019809F0B0FF01985B
:103B3C00691C306007F0130208F0D6FA054620B174
:103B4C000199074809F09EFB3460284603B0BDE894
:103B5C00F040FFF743BF6FF00B0003B0F0BD00BFA8
:103B6C000004002070B50024C16886B006462246C9
:103B7C00204601318DF8174002F09CFF054680B1BC
:103B8C00164B0390CDE901432046234601221449EC
:103B9C00009407F00FF8284606B0BDE87040FFF718
:103BAC001DBF3369052158780DF1170203F036FB60
:103BBC00044670B10B4B0390CDE9015301222B4607
:103BCC0028460749009506F0F5FF042C03D8064B50
:103BDC00185706B070BD6FF00400FAE7B10301008E
:103BEC00FCE70000C5030100350D01002DE9F04193
:103BFC0005468EB0012007F039F80B260827DFF8B0
:103C0C00E880286807F022F8044678B100230122E6
:103C1C001846CDE900333549CDF8088006F0FFFF92
:103C2C00012C3ED014F1740F1CD13CE04FF4D57331
:103C3C0006937923CDE90B30C823286805A905978D
:103C4C000D9306F0FBFF60BB95F84B20AAB1089BC7
:103C5C00D9B2AA2925D103F47063B3F5807F0ED0B5
:103C6C006FF08504224B0122029300231F49184652
:103C7C00CDE9003306F0D3FF0FE0079BE8E7B5F87A
:103C8C006A3043F00803A5F86A30EAB9284600F018
:103C9C00E1FB041E18BF6FF0850420460EB0BDE892
:103CAC00F081013EADD1134B0322029300230F4947
:103CBC001846CDE9003306F0B2FF286806F0C6FFBF
:103CCC0004460028E9D1E1E73B2201231021CDE98C
:103CDC0005230023CDE90B13C823286805A90D93F0
:103CEC0006F0ACFFECE700BFE30301004CE800007A
:103CFC0027040100F60301002DE9FF410023436076
:103D0C000223037240F20113438190F837300446CA
:103D1C00DA0700F104081ED413F0020F0CBF0326BF
:103D2C0002260127F6B2414620686673677206F0D8
:103D3C006DFF054688B11D4B03931D4B3A4602930C
:103D4C0000231C491846CDE9003306F068FF2846CD
:103D5C0004B0BDE8F0810126E3E7206B06F086FF96
:103D6C00022341462068637206F050FF054608B1F5
:103D7C00114BE1E72674A4F86A000646206B06F0A6
:103D8C0075FF0E4B41462068636006F03FFF054609
:103D9C000028DCD00A4B3A46CDE901633046334665
:103DAC000449009606F03BFFD1E700BF3A0401003E
:103DBC00420401004CE8000063040100801A060074
:103DCC006A040100F0B50D4685B0002863D041F8B7
:103DDC00280B83689B697BB19847044678B12F4BBD
:103DEC000293002301221846CDE900332C4906F03A
:103DFC0016FF204605B0F0BD6FF05704EFE705F154
:103E0C001406304609F089FA04460028F1D14BF229
:103E1C001B720023304604F019FB044608B1214BF9
:103E2C00DEE72846FFF768FF044618B1304606F077
:103E3C00F4FEDEE72846FFF7D9FE0328044619D125
:103E4C000127284685F86870FFF756FF044650B1E5
:103E5C00154B029300233A461846CDE9003310491E
:103E6C0006F0DDFEE2E72846FFF7C0FE044648B147
:103E7C000E4BEEE730B1304606F0CFFE012385F84D
:103E8C006830B6E70223304685F8683005B0BDE8E7
:103E9C00F04006F0C2BE6FF01204AAE784040100E1
:103EAC004CE80000B3040100DE040100F70401003B
:103EBC0070B505460E4C286806F006FF58B90B265F
:103ECC00284606F042FF01280ED1013EF8D1A4F598
:103EDC00F414A4F590647D207D3C09F072F9002C5B
:103EEC00E9DC6FF00F0001E00028F4D170BD00BFD9
:103EFC0080969800372310B58EB0002205931123BD
:103F0C00CDE90B32C82309040691044605A90068C3
:103F1C000D9306F0CBFE0346F8B90B9A012A11D18A
:103F2C0007990F4A0A406AB10E4A0391CDE9010282
:103F3C000D490222009006F0CEFE6FF004031846E5
:103F4C000EB010BD94F84B20002AF8D1079A12F04D
:103F5C00200F08BF6FF08503F1E70123EFE700BFE7
:103F6C000880F9FD210501004CE800002DE9F04125
:103F7C0014461E461A44036E05469A42884694B06F
:103F8C007BD890F86930012B0FD13D4B0222029364
:103F9C0000233C491846CDE9003306F09CFE6FF037
:103FAC008504204614B0BDE8F08100F1140700230D
:103FBC003846354A04F04AFA60B1344B0222029377
:103FCC00002330491846CDE9003306F084FE6FF02B
:103FDC000F04E6E7012E14BF12231123B5F86A2053
:103FEC000890900748BF22460B93B5F864304FF009
:103FFC00110158BF04FB03F20C920322CDE91112FC
:10400C00C822CDE9054342F210731392286805AA21
:10401C000BA90796CDF824800A9306F047FE0446B8
:10402C00C0B11B4B03900293002301221846CDE92B
:10403C000033144906F04FFE164B01220293002365
:10404C0010491846CDE9003306F045FE384606F017
:10405C007AFEA6E72846FFF72BFF04460028F5D08A
:10406C000D4B01220293002306491846CDE900337B
:10407C0006F031FE6FF07304DEE76FF0150490E785
:10408C00500501004CE80000B4C4040073050100A5
:10409C008F050100CF050100AC0501002DE9F04FA3
:1040AC0014461F469A18036E05469A420E46A5B052
:1040BC0000F2B68090F86930012B0FD15A4B0222D6
:1040CC000293002359491846CDE9003306F003FE4C
:1040DC006FF08504204625B0BDE8F08F00F1140880
:1040EC0000234046524A04F0B1F960B1514B022210
:1040FC00029300234D491846CDE9003306F0EBFD41
:10410C006FF00F04E6E7012F14BF19231823B5F83D
:10411C006A201293910748BF2246B5F864304FF0DD
:10412C00110B58BF03FB04F2139203224FF0C80A81
:10413C0042F21079CDE918B2099006AA286812A9A2
:10414C000A96CDE90643CDF868A00897CDF82C90D7
:10415C0006F0ACFD06462846002E4CD0FFF7A8FE14
:10416C000146002859D118220CA809F090FC2846C9
:10417C00B5F85E10FFF7BEFE044670BB1623042292
:10418C00CDE91B300123CDE921B0CDE90D230C90F5
:10419C0005F18C0328680CAA1BA9CDE91039CDF8C0
:1041AC008CA006F083FD0446B8B9219B012B03D1EA
:1041BC00214C1D9B1C4084B9D5F88C3001221BBAB4
:1041CC00CDE903371D4B1949029300231846CDE95D
:1041DC00003306F080FD6FF00404194B01220293AA
:1041EC00002312491846CDE9003306F074FD404611
:1041FC0006F0A9FD6EE7FFF75BFE04460028F6D03B
:10420C00104B0122CDE90163304633460749009635
:10421C0006F061FD6FF07304DFE76FF00F04DCE76D
:10422C006FF0150456E700BF500501004CE8000084
:10423C00B4C40400730501000880F9FDE005010019
:10424C0002060100AC0501002DE9F041036E0546A4
:10425C0093420E4617468EB0C0F08F809B1A8B424D
:10426C00C0F08B8090F86930012B0FD1444B0222A7
:10427C000293002343491846CDE9003306F02BFD89
:10428C006FF0850420460EB0BDE8F08100F11408F3
:10429C00002340463C4A04F0D9F860B13B4B022263
:1042AC000293002337491846CDE9003306F013FD7D
:1042BC006FF00F04E6E70324C823CDE90C43202359
:1042CC00059311230B93B5F86A3000229B0758BF56
:1042DC00B5F86430286858BF734305A9069658BFD3
:1042EC00069306F0E3FC0446002836D121230593FF
:1042FC0011230B93B5F86A30013E980758BFB5F8F7
:10430C0064303E4458BF73434FF00002286805A93F
:10431C00069658BF069306F0C9FC0446E8B9262356
:10432C000593222302460690064605A928680B939E
:10433C0006F0BCFC044680B92846FFF7B9FD0446DC
:10434C0058B1134B0122CDE90163304633460D4978
:10435C00009606F0C0FC6FF07304404606F0F3FCC8
:10436C00002C8FD00B4B01220293002305491846D9
:10437C00CDE9003306F0AFFC84E76FF0150481E75C
:10438C00500501004CE80000B4C4040073050100A2
:10439C00AC0501000F0601002DE9FF4180460E46D9
:1043AC00154600F1140700233846264A04F04EF84F
:1043BC00044668B1244B0222029300232349184679
:1043CC00CDE9003306F087FC204604B0BDE8F0814F
:1043DC00711E072933D8DFE801F0040B320E1032BE
:1043EC00152DD8F860302B60384606F0ACFCEBE7A6
:1043FC00B8F86430F7E70123F5E74046FFF758FDBE
:10440C000446F1E74046FFF753FD48B1104B02223A
:10441C00029300230D491846CDE9003306F05BFCEE
:10442C000123D8F8000088F8093008F1040106F0DF
:10443C0044FCE5E72946404606F0F9FCE0E76FF05E
:10444C008504D1E7B4C40400730501004CE80000F6
:10445C001C0601002DE9F04F04469BB010220021F0
:10446C0007A809F014FB94F84B30002B00F00582E0
:10447C000021204606F0F6FC0546A0BBB4F86A60A5
:10448C0084F8690006F00807C6F3C006B607642076
:10449C0008F097FE2923CDE9113614231793C8236E
:1044AC00CDE9185300212046FFF724FD01280246D0
:1044BC0024D0002840F0E881206811A906F0C4FC43
:1044CC000246002840F0E08194F84B20002F00F0C9
:1044DC00D781139B5AB1D8070BD43146204606F02E
:1044EC00C1FC054630B328461BB0BDE8F08F002B4D
:1044FC001FDB40F23910002108F08CFF0135B5F5B7
:10450C007A7FCFD1704B0122029300236F4918465A
:10451C00CDE9003306F0BFFC6FF073056C4B0293D2
:10452C00002301221846CDE90033684906F0B3FC9C
:10453C00D9E7E364E36C2046590048BFB4F86A201D
:10454C0007A944BF42F00202A4F86A20DA0142BF74
:10455C00B4F86A2042F02002A4F86A209B0342BF00
:10456C00B4F86A3043F04003A4F86A3006F05FFCFC
:10457C0005460028B7D1204606F021FC0546002848
:10458C00B1D1A36A534A934215D80393524B0322D9
:10459C00CDE901034D490346009006F07CFCA36A6B
:1045AC00274647F8043F3946206806F054FC054678
:1045BC0018B14A4BB3E74A4BF2E70146242211A843
:1045CC0009F065FA294618220BA809F060FA204672
:1045DC00B4F85E10FFF78EFC0546002883D1332318
:1045EC00CDE9113011231793C8230126CDE9180307
:1045FC000823CDE90C3642F21073206804F18C09C3
:10460C000BAA11A9CDF83C90109306F01DFC0546A1
:10461C0000287FF468AFD4F88C2002F00F03B3426B
:10462C004ED0022B44D0002B4CD0560548BFB4F8CA
:10463C006A304FEA126144BF43F00403A4F86A30B5
:10464C00D00142BFB4F86A3043F48073A4F86A30E6
:10465C00890742BFB4F86A3043F08003A4F86A308B
:10466C00B4F86A6016F0020640D11822314613A83D
:10467C00D4F800804FF4007A09F009FA1023CDE940
:10468C00113A11231793C8234046324611A91993A6
:10469C0006F0DAFB804638B3124B0122CDE90163F8
:1046AC00304633460949009606F0F5FB45461AE7B5
:1046BC0012F4000F14BF0823042384F86630B4E707
:1046CC000223FAE73346F8E76B0701004CE80000D9
:1046DC00380601003F787D01510601008606010075
:1046EC0040787D01AD060100A4F864A094F8363042
:1046FC009B067FF5F8AE94F86630012B7FF6F3AE8F
:10470C00D4F85080B8F1000F3FF4EDAE94F8583067
:10471C00002113F0020FC3F340022368164684F8FD
:10472C00672013A84FF018020CBF4FF0010B4FF08D
:10473C00020B0593D4F828A009F0A9F91022002146
:10474C000BA809F0A4F90623119311231793C8237E
:10475C0046F0004646F47F0646F47F4646F0F006E7
:10476C001296199301264023CDE90C3642F21073B0
:10477C0005980BAA11A9CDF83C90109306F064FB98
:10478C00814600286CD194F89C3094F8672003F093
:10479C000F039A424BD03D4B0222CDE901033C4919
:1047AC000346009006F077FB94F84830002B3FF45A
:1047BC009AAEB4F86A3058077FF595AE24220021E2
:1047CC0011A809F064F92046B4F85E10FFF792FBCB
:1047DC00064600BB0623119301231793C823CDE98A
:1047EC0018030223024611A92068129306F02CFB31
:1047FC00064680B9179B012B03D1264E139B1E40F6
:10480C004EB9042339462068A37206F024FB0646F1
:10481C0000283FF468AE204B0122029300231C4970
:10482C001846CDE9003306F036FB354623E0394611
:10483C00206884F80BB0D04594BFC4F80480C4F849
:10484C0004A006F008FB81460028ADD0134B32467D
:10485C00029300230E491846CDE9003306F01BFBEA
:10486C000F4B01220293002309491846CDE900336E
:10487C0006F011FB4D460B4B51E66FF0850532E609
:10488C00002A3FF457AE28E6154647E6CE0601004F
:10489C004CE800000880F9FD2D070100EC06010032
:1048AC000C0701005707010000210369426883F8D7
:1048BC00CC105268C3F8D820034AC3E9372003F15F
:1048CC00D000FDF725BB00BFC8E900000122024B58
:1048DC00C3F80424704700BF002008E0084B70B5F3
:1048EC00C31A0D4607499B100446594340220648FB
:1048FC0006F058FB2B4601462046BDE87040184791
:10490C00680B0020B76DDBB6FCDC0000402373B5F0
:10491C000B4C0093041B0B460D460A49A410614333
:10492C000646094A094806F069FB014628B130469B
:10493C002B4602B0BDE87040184702B070BD00BFF6
:10494C00680B0020B76DDBB675B00000FCDC000016
:10495C00F8B500220121054640F20510FDF764FF71
:10496C000F4802F0D1FD0446B8B902F0EDFD2F69F5
:10497C000C49384605F0C4FD031E09DB01263E64D4
:10498C002D69084905F11C0005F0BAFD031E02DA79
:10499C001C462046F8BDEE64FBE76FF00404F8E714
:1049AC00DD4A0000E0E900001FB5002201236C463F
:1049BC00CDE902236B46074ACDE9004406F04DFBD6
:1049CC0028B943F609520023684603F035FE04B0BB
:1049DC0010BD00BF87B0000010B5EFF31184202389
:1049EC0083F31288BFF36F8F074A136823F0020119
:1049FC00DB07116002D4012008F099F984F31188C7
:104A0C00BFF36F8F10BD00BFB80B00200C22104BF2
:104A1C00014602FB0033002030B4D3E90E529863F8
:104A2C00EFF31180202484F31288BFF36F8F1C6C7A
:104A3C0004F0C00444F002041C6480F31188BFF33A
:104A4C006F8F1DB12B4630BC0248184730BC7047E5
:104A5C00680B0020FCDC000010B4EFF31180202266
:104A6C0082F31288BFF36F8F16490B6843F0020470
:104A7C0013F001030C6017D0134BD3F80C3413F460
:104A8C00803311D0EFF3118182F31288BFF36F8F53
:104A9C000E4A136C03F0C00343F00203136481F35A
:104AAC001188BFF36F8F012380F31188BFF36F8FD1
:104ABC001BB1002010BCFFF7A9BF012010BC08F0EF
:104ACC002EB900BFB80B002000E01050680B00207E
:104ADC00022808D0042808D1044B186C10F00700E9
:104AEC0003D1FFF793BF0120FBE77047680B002051
:104AFC002DE9F041012280463549D1E8EF3FC1E86C
:104B0C00E02F0028F9D133B9324933484B60CB60E0
:104B1C008A6005F008FD08F1FF33012B4BD8B8F182
:104B2C00010F06D12D4BD3F8503403F00303012BA6
:104B3C0041D008F0F9FB054650B1EFF31186202364
:104B4C0083F31288BFF36F8F0125244C244F20E090
:104B5C00244B1B78002BF0D00422204B0646C3F8C4
:104B6C000823F2E74DB3304605F0EAFED4F84034A2
:104B7C0013F0FF030DD1D4F8082152B1C4F8083159
:104B8C00D4F8083120220123C4F84034C7F8A021FE
:104B9C002361D4F84C24D4F84C34D203E2D503F07E
:104BAC000303012B02D0B8F1010FDBD155B186F311
:104BBC001188BFF36F8FBDE8F0810021202008F031
:104BCC0029FCD3E70422054BC3F80423F3E700BF09
:104BDC00640B0020540B0020840B002000E01050CC
:104BEC0000E100E05A30002008B5074808F005FB4A
:104BFC0038B10648FEF770F90448FCF785FC002034
:104C0C0008BD6FF01200FBE79CDD00001D4C00009E
:104C1C000A2838B50446074D04D1AB680D21284647
:104C2C005B689847AB6803485B68E1B298472046DD
:104C3C0038BD00BF9CDD000070B546680546B06805
:104C4C00C0B108F05AFA0146A0B9B06802F0D4FE1F
:104C5C000446A8B902460C49B06808F038FA224656
:104C6C000121DB20FDF7E0FD2246012140F20D1071
:104C7C00FDF7DAFD2846BDE87040044905F0A4BDF7
:104C8C006FF0040070BD00BF194E000031B1000080
:104C9C002DE9F04340F206354768D00648BF4FF087
:104CAC00030C3B7C02EA050558BFC2F3401C87B0DD
:104CBC0001F01F06B5F5837F144646EA43168DF8BE
:104CCC0003C045D00DD8062D44D005D8A5B1022D72
:104CDC0012D06FF0150038E0B5F5807FF9D10125C1
:104CEC000AE040F20222954236D0B5F5407F35D02D
:104CFC00B5F5007FEDD10425220331D501237A6867
:104D0C008B405360B86890BB5F2E06F01F034FEAD0
:104D1C00561175D83C4A52F82120C4F3004102EBDD
:104D2C008302D2F8803081F00101C4F3404423F4B3
:104D3C00706344EA410423F00F031C4344EA8C04DF
:104D4C0044EA0524C2F88040002007B0BDE8F08397
:104D5C000925D1E70825CFE70625CDE70525CBE7C3
:104D6C00630341BF01237A688B409360CAE73146E5
:104D7C000DF1020208F0AEF914F4403F80460CD15C
:104D8C003146B86808F0BFF9B8F1000FDCD19DF8D6
:104D9C000210B86802F068FED6E74FF0000901ABCC
:104DAC00CDE90199CDE90439CDF80C903146B868BC
:104DBC0003AA08F0D8F84845C6DB14F4003314D025
:104DCC009DF80330C4F3004484F001048DF80E30D8
:104DDC008DF80C508DF80D404B463146B86803AA3F
:104DEC0002F094FD0028CFDAAEE7CDE904330DF1E3
:104DFC00030303933146B86803AA08F0B4F8F1E74B
:104E0C00203350F82330FFDE04EA00004209022A66
:104E1C00034670B503D0012A18D0CAB170BD0E4E2E
:104E2C00326951680029F9D0012503F01F030C6881
:104E3C009D400029F2D08A682A4002D030464B6847
:104E4C0098473CB1236821461C46F2E7034EE7E73E
:104E5C00034EE5E72346F6E75CDD00003CDD000091
:104E6C001CDD0000F0B544681646A068227C01F0F9
:104E7C001F0587B045EA421500286CD0B6F5001F17
:104E8C0004D1294608F091F9002055E06268607C55
:104E9C00B6F5800F50624FF0000001AA01905060EF
:104EAC0039D1B3F1007F14BF052304238DF80430EE
:104EBC000023CDE904230393E3680DF1030723FAE0
:104ECC0001F111F0010139D1B6F1A07F36D105F015
:104EDC001F035F2D4FEA551003F120033ED8214AE2
:104EEC0052F8202052F82330DB0727D43A462946C3
:104EFC00A06808F0EFF8163018D002972946A06881
:104F0C0003AA08F030F8002816DB01222946A06815
:104F1C0008F0FBF8B8E7B3F1C06F05D0B3F1007F30
:104F2C0014BF01230223C1E70323BFE73946A0685E
:104F3C0002F0A4FD0028E0DA07B0F0BD3A4629469D
:104F4C00A06808F0C7F80028D8D19DF80310A06815
:104F5C0002F08AFDD2E76FF08500EDE751F82330BF
:104F6C00FFDE00BF04EA000030B587B0194D2846BB
:104F7C0008F043F90346E8B92A6817490392174A1F
:104F8C000090CDE90102012206F0D0F86FF0120476
:104F9C00204607B030BD2B6801220393104B0E49FD
:104FAC000293002305941846CDE90033049206F0D1
:104FBC00BDF8EDE72A69A9681368284623F00203B7
:104FCC0013600B68002201219847041EE3DB0024C8
:104FDC00DEE700BF1CDD000004E80000DE07010076
:104FEC00F5070100036803F01F025F2B02604FEA14
:104FFC0053129ABF024B53F822000020704700BF97
:10500C004CEA00002DE9F04F9246074640F2FF189B
:10501C00504E85B000EB8101B94203D1002005B0A0
:10502C00BDE8F08F3B68C3F3C322082AC3F308041E
:10503C0000F28C804848444508BF4FF0FF34B3F170
:10504C00B05F855C4FEA13620ED2152A0ED8DFE8EA
:10505C0002F0101E23260D0D0D0D0D0D0D29330D17
:10506C000D0D0D0D0D0D363C382A31D06FF085002D
:10507C00D5E7CAF80446621C25D003A80394FFF7B1
:10508C00B1FF0122039B02FA03F343603BE0CAF831
:10509C000C464FF000090CE0CAF81046EBE7CAF8D2
:1050AC000846F6E7CAF80046002DF2D14FF0000989
:1050BC000825631C29D106E0CAF80446F4E7631CF2
:1050CC00CAF8404516D10437A6E7CAF84445E0E7CC
:1050DC0003A80394FFF786FF039B4FF0010900EB35
:1050EC008300D0F8803023F0E04343F08043C0F8D5
:1050FC008030DEE703A80394FFF774FF0122039BC3
:10510C0002FA03F383604FF001093B68039418041F
:10511C0003A852BFCB464FF0010B4FF0000901938F
:10512C00FFF760FF039C019B00EB8400D0F88040EC
:10513C00C3F3412C2B0243EA8C0343EA09033440AA
:10514C00234343EA4B03C0F88030BCE76FF01500F3
:10515C0065E700BFF0F0FCFF4E0D01007FB50BAB17
:10516C0005930393054B0122029300231846CDE9C6
:10517C000033FCF7E5FB07B05DF804FB38080100D1
:10518C00F0B5446885B094F82670054607F003071F
:10519C003E1E18BF012605F0F7FFA06A30B9314654
:1051AC00284605B0BDE8F04006F067B808F025F8D1
:1051BC00034670B9A26A1A49126800900392194A00
:1051CC00CDE901020122FFF7C9FF6FF0120005B013
:1051DC00F0BD002F0CBF4FF4B0134FF4D013E28D81
:1051EC00A06A94F82C101A430127D0F810C042F38F
:1051FC00000303F44023DCF80040534023F48012F6
:10520C008F40DB07D0F808E04CBF3C43BC43CCF8E4
:10521C000040DEF8003098470028C0DAD7E700BF1E
:10522C0044E800003808010003460A46F0B4197936
:10523C00DB88006813430125094A06699A433468E0
:10524C0008BF83F440238D4023F48012DB0787686A
:10525C004CBF2C43AC4334603B68F0BC184700BFD8
:10526C000100100010B5094C88B0CDE900430124B1
:10527C00059304ABCDE90342CDE9063402AA06AB93
:10528C00CDF808D006F0D6F808B010BD570D0100C7
:10529C000369024A5B6800201A607047801A060096
:1052AC000B4610B5242244680021184608F0EFFB89
:1052BC00074A426062690260A2698260C27B42F066
:1052CC000102C273012280F82320002010BD00BF10
:1052DC00801A060073B50C4C456806690123716889
:1052EC0028680DF10702FFF7BDFF28B99DF80700EC
:1052FC00FF2803D1013CF1D202B070BD002CFBD1D0
:10530C006FF07300F8E700BF40420F007FB54568AF
:10531C000669286807F071FF38B36868B0B12C1DB6
:10532C0007F06BFF08B320464FF4B011FFF77CFF7A
:10533C00044658B1194B03900293002301221846DE
:10534C00CDE90033164906F0A9F810E0E868D8B1A9
:10535C000C3507F052FF034660B9124A1049CDE9EB
:10536C0001020090012206F099F86FF01204204619
:10537C0004B070BD4FF480312846FFF755FF041E72
:10538C0003DA094B0394D7E704463346012203F8AA
:10539C00082B73600023B360E9E700BF9808010095
:1053AC0054E80000BC080100DE0801002DE9F04FB4
:1053BC0043689FB006930369D1F81CA00546894643
:1053CC0016460021142216A8079308F060FB0C2344
:1053DC00202115930123CDE91B134FF47A731D93F0
:1053EC00002E55D001224946284606F09EF80AF1B7
:1053FC00FF3A0446002840F09480D9F800202B692D
:10540C00183A012A0593D5F804B0D6F81080D6E9DD
:10541C00013700F29A8012930BAB1393022314936F
:10542C000FAB0D93032308AA0F920122022F0E93A8
:10543C0034BFFE23FC23CDE910288DF82030002F3B
:10544C003CD1B368012B17D9FD238DF820300123F3
:10545C0005990E9349683B46DBF800000DAA05F050
:10546C00E9FF0446002850D13A462846716906F0F7
:10547C0024F80446002C48D1D9F80030122B0FD157
:10548C00002442E0BAF1000F0AF1FF3309DD9A461D
:10549C0000224946284606F048F804460028F1D177
:1054AC000024069B1868079B596883685B689847BB
:1054BC00002C18BF20461FB0BDE8F08F4146726823
:1054CC00002005F0FFFC059940BAADF82C00002334
:1054DC004968DBF800000DAA05F0ACFF0446A0B942
:1054EC00059901234968DBF8000009AAFFF7BAFE09
:1054FC00044650B99DF8243003F00F03052B15D04A
:10550C000B2B40F088806FF089040022284615A9E7
:10551C00D9F81C7006F009F808B1002F7EDC002CBD
:10552C00BED0BAF1000F3FF75DAFBAE77368024621
:10553C00984428467169CDF8448005F0BEFF013FC0
:10554C00044600283FF47BAFDFE7B3F5007F02D9B8
:10555C006FF08504D9E7354A0E93CDE9092309AAE2
:10556C000B9201220DAB2846CDE90C28CDE90F3268
:10557C00FFF7B0FE041EC8DBFE2C4CD1013FFFF43C
:10558C0079AF0599DBF8000049680FAB0BAA05F061
:10559C0051FF044650B1264B0122029300232549AA
:1055AC001846CDE9003305F079FFAEE705990323E2
:1055BC00496808AADBF80000FFF754FE4146044690
:1055CC007268002005F07EFCBDF820305BBA9BB2FF
:1055DC0083420AD0184B0122029300231549184626
:1055EC00CDE9003305F05AFF8DE773689844CDF888
:1055FC003480002FC2D02846FFF76CFEFE280446EC
:10560C00BCD00E4B0122029300230A491846CDE967
:10561C00003305F043FF6FF0040476E700222846C0
:10562C0015A905F082FF013F044675E7570D0100EF
:10563C000809010054E800001A09010027090100BB
:10564C002DE9FF41064634690D4662680968136806
:10565C004068994217D04369994204D96FF085008C
:10566C0004B0BDE8F08171B104F10807BA4204F14D
:10567C00240356D1A160194652F8047B9A4241F892
:10568C00047BF9D163602B79022BE7D16A792378FB
:10569C00934264D0022A43684FD1ABB1012104304C
:1056AC0005F0B4FE0746002838D1002140F26540D1
:1056BC0007F0B0FE2F4B0322CDE9017338463B4671
:1056CC002D49009705F0EAFE3269D6F80480566839
:1056DC0033680BB9294B3360B388314643F48043AC
:1056EC00B380D8F800000A234032FFF7BBFD074611
:1056FC00D8F80000836831465B689847B388384314
:10570C0023F48043B38028D01D4B01220293002345
:10571C0019491846CDE9003305F0C0FE6FF00400BE
:10572C009EE73A46616204F1400153F804CB8B4288
:10573C0042F804CBF9D16760A5E773B100210430BE
:10574C0005F064FE03460028E8D10E4A0A49CDE96B
:10575C0001020090032205F0A1FE6B792370AB7956
:10576C00012B7FF47BAF6B7A012B7FF477AF00209A
:10577C0076E700BF3109010054E80000801A0600EA
:10578C003C0901005B09010038B50546446801215C
:10579C00E06805F0D3FF6B6819686369C1F82435BC
:1057AC00E28BA38BA07E1343228C1343628C134396
:1057BC00627E9BB20243207E02431343C1F86C35D8
:1057CC0069680B68D3F8002242F48022C3F80022E7
:1057DC000822C3F800254A6A0121C3F83C2700229D
:1057EC00C3F840271965D3F830110029FBD0C3F852
:1057FC0000252846BDE83840014904F0E5BF00BF4C
:10580C00A3B700002DE9F34104460D46476807F0A5
:10581C008BFD88B12022EFF311831E4682F3128890
:10582C00BFF36F8F61680968D1F83011D1B983F378
:10583C001188BFF36F8FEEE7224B1B78002BE9D05A
:10584C004FF02008642663681B68D3F830313BBBEB
:10585C00012007F02DFA013EF5D10021202007F0A0
:10586C00D9FDEFE77B6A20461D7063680DF10701D7
:10587C007F6A1D6804F093FF9DF807204AB9012345
:10588C00C5F83C77C5F84037C5F83021D5F830213C
:10589C002B6586F31188BFF36F8F02B0BDE8F081E2
:1058AC00EFF311831E4688F31288BFF36F8F626883
:1058BC001268D2F83021002AD4D183F31188BFF3B7
:1058CC006F8FCAE75A30002003460A46F0B41979A4
:1058DC00DB88006813430125094A06699A4334683A
:1058EC0008BF83F440238D4023F48012DB078768C4
:1058FC004CBF2C43AC4334603B68F0BC184700BF32
:10590C000100100070B54568066986B0286807F07C
:10591C0074FC034660B9384ACDE90132374901229B
:10592C00009305F0B3FF6FF01204204606B070BD73
:10593C004FF4B0112846FFF7C7FF041E0BDA304BAB
:10594C0003940293002301221846CDE900332B491E
:10595C0005F09CFFE9E7A86888B105F1080407F099
:10596C004CFC034608B9274AD6E720464FF4B01141
:10597C00FFF7AAFF041E02DA234B0394E1E7286920
:10598C0080B1103507F039FC034608B91F4AC3E74C
:10599C004FF480312846FFF797FF041E02DA1C4BA8
:1059AC000394CEE7B568D6E9023203EBC2039D42FD
:1059BC0001D30024B9E7286807F01FFC034688B917
:1059CC002A790E4904922A686FF01204126800902A
:1059DC000392104ACDE90102012205F057FF0E4B4C
:1059EC000394AEE74FF4B0112846FFF76DFF041E89
:1059FC00F5DB0835D7E700BF9E0901006CE8000015
:105A0C00C1090100E2090100060A0100280A01008F
:105A1C004C0A01006E0A0100920A01002DE9F04FB8
:105A2C0091468A881F4612F001030E46D0F804A056
:105A3C00046995B00FD0A34B0293002301221846A2
:105A4C00CDE90033A04905F021FF6FF085084046F1
:105A5C0015B0BDE8F08FC2F34512202A02D99B4A3B
:105A6C000292EBE7531E48BF931DDB10022BA2657D
:105A7C0003F1010208BF042222660A68BAB1944BF2
:105A8C00B3FBF2F35B10E3652660B288DAF80830FA
:105A9C00120536D56BB98F4A029201221846CDE910
:105AAC000033894905F0F2FE6FF01508CFE70423A7
:105ABC00E9E7B9F1000F08D01FB1874B029300231F
:105ACC00EBE70AF1080B3D4624E0002F00F0A6811D
:105ADC00CB464FF480310AF108050AF10800FFF7B4
:105AEC00F3FEB0F100081ADA7C4B0122029300237A
:105AFC0075491846CDE90033CDF80C8005F0C6FE8B
:105B0C00A5E753B10AF1080BDAF810500DB10AF100
:105B1C00100523B14FF4B011DFE79B46F4E794F87E
:105B2C006080B9F1000F40F08880C4F834900023F5
:105B3C00A36304F134030C9304F138030D9304F1C3
:105B4C004C030E9304F14C02434604F1380104F16A
:105B5C00340005F085FEA064002F77D1E7630023A5
:105B6C00236404F13C030F9304F14003109304F1FC
:105B7C005403119304F15402434604F1400104F11F
:105B8C003C0005F06DFE00231A462065A06B2363D4
:105B9C00824261D100221146276CB94263D19342F3
:105BAC002CBF63646264B6885046C6F340030A9304
:105BBC0006F00403099306F008030793C6F34001AB
:105BCC0006F010030B9305F071FE206848B1037DBD
:105BDC003BB10121083005F069FE2368186907F014
:105BEC00F0FAE36D0693C6F3400383F001030893C8
:105BFC0006F00C031293A26C12B1E36C002B3FD194
:105C0C00236D13B1636D002B34D123686BB11A7DF6
:105C1C005AB1998811F4805507D1186907F0D1FA57
:105C2C0020682946083005F041FE0025256304F163
:105C3C00200002F0CDFCA84609E7D9F800306363D8
:105C4C00002B3FF474AFD9F8043071E73B68E36381
:105C5C00002B84D07B6883E7616B01EBC201496840
:105C6C0001320B4494E7E06B00EBC100406801315A
:105C7C00024492E7D4F84C80B8F1000F00F0C980D0
:105C8C00236E022B17D004DC012B17D04FF0000829
:105C9C0004E0033B012BF9D8D2F80080002D00F072
:105CAC00BB80266D1EB1666D003E18BF0126002319
:105CBC00CDE9043357E0B2F80080EFE792F80080AA
:105CCC00ECE700BFB20A01006CE80000CB0A01004F
:105CDC0040420F00EE0A0100180B0100450B0100B9
:105CEC000B9A12B9013BA3EB090928FA09F707F043
:105CFC000107BBF1000F03D03946584605F0D6FD1D
:105D0C00069807F05EFA129B002B65D1002E65D029
:105D1C00284605F090FD034650460899139305F06C
:105D2C00C5FD069807F04DFA079A139B32B92EB1B0
:105D3C00099A1AB1284605F07EFD034650460A9989
:105D4C00139305F0B3FD139B079A002A08BF1F4657
:105D5C00003F18BF0127049B07FA09F73B43049344
:105D6C00059B013305939DF81490A36D9945B7DB02
:105D7C00226D3AB1636D2BB1236E022B36D02FDC22
:105D8C00012B36D0E36C94F8606083B1013BE36483
:105D9C00002B31D1DDE90D12636B0C980833636372
:105DAC00A36B013BA363334605F05AFDA064636DFE
:105DBC00002B3FF420AF013B63651BBBDDE91012E8
:105DCC00E36B0F980833E363236C013B2364334686
:105DDC0005F046FD20650EE700239DE733469BE763
:105DEC00033B012BCED8049B1360CBE7049B1380A1
:105DFC00C8E7049B1370C5E7A36C002BD7D03344C2
:105E0C00A364D4E7236D002B3FF4F5AE3344236534
:105E1C00F1E6002D7FF447AF2E4648E7BB4652E62D
:105E2C0070B40F4CD4E90015501A63EB0506400909
:105E3C0040EAC6602026E0FB0615C4E900150024E4
:105E4C0000250849C1E90023074BC3E90045EFF3DE
:105E5C00118186F31288BFF36F8F70BC03F070B89A
:105E6C00B8040020A0040020B004002008B50022D3
:105E7C000121E420FCF7D8FC164A0020D2F8183790
:105E8C0023F44033C2F8183701F040FF002820DB20
:105E9C000120114901F0C6FF00281ADB01F010FFA8
:105EAC000E4B20F01F00C3E900010D4B0022C3E98B
:105EBC0000014FF0FF304FF0FF310A4BC3E90001F6
:105ECC00094B0A49187A01F00BFF67220020084B96
